{
  "address": "0xcc4440a637B72130c0646E4eaB764522f7b247d1",
  "abi": [
    {
      "inputs": [
        {
          "internalType": "address",
          "name": "_libAddressManager",
          "type": "address"
        },
        {
          "internalType": "uint256",
          "name": "_forceInclusionPeriodSeconds",
          "type": "uint256"
        },
        {
          "internalType": "uint256",
          "name": "_forceInclusionPeriodBlocks",
          "type": "uint256"
        },
        {
          "internalType": "uint256",
          "name": "_maxTransactionGasLimit",
          "type": "uint256"
        }
      ],
      "stateMutability": "nonpayable",
      "type": "constructor"
    },
    {
      "anonymous": false,
      "inputs": [
        {
          "indexed": false,
          "internalType": "uint256",
          "name": "_startingQueueIndex",
          "type": "uint256"
        },
        {
          "indexed": false,
          "internalType": "uint256",
          "name": "_numQueueElements",
          "type": "uint256"
        },
        {
          "indexed": false,
          "internalType": "uint256",
          "name": "_totalElements",
          "type": "uint256"
        }
      ],
      "name": "QueueBatchAppended",
      "type": "event"
    },
    {
      "anonymous": false,
      "inputs": [
        {
          "indexed": false,
          "internalType": "uint256",
          "name": "_startingQueueIndex",
          "type": "uint256"
        },
        {
          "indexed": false,
          "internalType": "uint256",
          "name": "_numQueueElements",
          "type": "uint256"
        },
        {
          "indexed": false,
          "internalType": "uint256",
          "name": "_totalElements",
          "type": "uint256"
        }
      ],
      "name": "SequencerBatchAppended",
      "type": "event"
    },
    {
      "anonymous": false,
      "inputs": [
        {
          "indexed": true,
          "internalType": "uint256",
          "name": "_batchIndex",
          "type": "uint256"
        },
        {
          "indexed": false,
          "internalType": "bytes32",
          "name": "_batchRoot",
          "type": "bytes32"
        },
        {
          "indexed": false,
          "internalType": "uint256",
          "name": "_batchSize",
          "type": "uint256"
        },
        {
          "indexed": false,
          "internalType": "uint256",
          "name": "_prevTotalElements",
          "type": "uint256"
        },
        {
          "indexed": false,
          "internalType": "bytes",
          "name": "_extraData",
          "type": "bytes"
        }
      ],
      "name": "TransactionBatchAppended",
      "type": "event"
    },
    {
      "anonymous": false,
      "inputs": [
        {
          "indexed": true,
          "internalType": "address",
          "name": "_l1TxOrigin",
          "type": "address"
        },
        {
          "indexed": true,
          "internalType": "address",
          "name": "_target",
          "type": "address"
        },
        {
          "indexed": false,
          "internalType": "uint256",
          "name": "_gasLimit",
          "type": "uint256"
        },
        {
          "indexed": false,
          "internalType": "bytes",
          "name": "_data",
          "type": "bytes"
        },
        {
          "indexed": true,
          "internalType": "uint256",
          "name": "_queueIndex",
          "type": "uint256"
        },
        {
          "indexed": false,
          "internalType": "uint256",
          "name": "_timestamp",
          "type": "uint256"
        }
      ],
      "name": "TransactionEnqueued",
      "type": "event"
    },
    {
      "inputs": [],
      "name": "ENQUEUE_GAS_COST",
      "outputs": [
        {
          "internalType": "uint256",
          "name": "",
          "type": "uint256"
        }
      ],
      "stateMutability": "view",
      "type": "function"
    },
    {
      "inputs": [],
      "name": "ENQUEUE_L2_GAS_PREPAID",
      "outputs": [
        {
          "internalType": "uint256",
          "name": "",
          "type": "uint256"
        }
      ],
      "stateMutability": "view",
      "type": "function"
    },
    {
      "inputs": [],
      "name": "L2_GAS_DISCOUNT_DIVISOR",
      "outputs": [
        {
          "internalType": "uint256",
          "name": "",
          "type": "uint256"
        }
      ],
      "stateMutability": "view",
      "type": "function"
    },
    {
      "inputs": [],
      "name": "MAX_ROLLUP_TX_SIZE",
      "outputs": [
        {
          "internalType": "uint256",
          "name": "",
          "type": "uint256"
        }
      ],
      "stateMutability": "view",
      "type": "function"
    },
    {
      "inputs": [],
      "name": "MIN_ROLLUP_TX_GAS",
      "outputs": [
        {
          "internalType": "uint256",
          "name": "",
          "type": "uint256"
        }
      ],
      "stateMutability": "view",
      "type": "function"
    },
    {
      "inputs": [
        {
          "internalType": "uint256",
          "name": "",
          "type": "uint256"
        }
      ],
      "name": "appendQueueBatch",
      "outputs": [],
      "stateMutability": "pure",
      "type": "function"
    },
    {
      "inputs": [],
      "name": "appendSequencerBatch",
      "outputs": [],
      "stateMutability": "nonpayable",
      "type": "function"
    },
    {
      "inputs": [],
      "name": "batches",
      "outputs": [
        {
          "internalType": "contract IChainStorageContainer",
          "name": "",
          "type": "address"
        }
      ],
      "stateMutability": "view",
      "type": "function"
    },
    {
      "inputs": [
        {
          "internalType": "address",
          "name": "_target",
          "type": "address"
        },
        {
          "internalType": "uint256",
          "name": "_gasLimit",
          "type": "uint256"
        },
        {
          "internalType": "bytes",
          "name": "_data",
          "type": "bytes"
        }
      ],
      "name": "enqueue",
      "outputs": [],
      "stateMutability": "nonpayable",
      "type": "function"
    },
    {
      "inputs": [],
      "name": "forceInclusionPeriodBlocks",
      "outputs": [
        {
          "internalType": "uint256",
          "name": "",
          "type": "uint256"
        }
      ],
      "stateMutability": "view",
      "type": "function"
    },
    {
      "inputs": [],
      "name": "forceInclusionPeriodSeconds",
      "outputs": [
        {
          "internalType": "uint256",
          "name": "",
          "type": "uint256"
        }
      ],
      "stateMutability": "view",
      "type": "function"
    },
    {
      "inputs": [],
      "name": "getLastBlockNumber",
      "outputs": [
        {
          "internalType": "uint40",
          "name": "",
          "type": "uint40"
        }
      ],
      "stateMutability": "view",
      "type": "function"
    },
    {
      "inputs": [],
      "name": "getLastTimestamp",
      "outputs": [
        {
          "internalType": "uint40",
          "name": "",
          "type": "uint40"
        }
      ],
      "stateMutability": "view",
      "type": "function"
    },
    {
      "inputs": [],
      "name": "getNextQueueIndex",
      "outputs": [
        {
          "internalType": "uint40",
          "name": "",
          "type": "uint40"
        }
      ],
      "stateMutability": "view",
      "type": "function"
    },
    {
      "inputs": [],
      "name": "getNumPendingQueueElements",
      "outputs": [
        {
          "internalType": "uint40",
          "name": "",
          "type": "uint40"
        }
      ],
      "stateMutability": "view",
      "type": "function"
    },
    {
      "inputs": [
        {
          "internalType": "uint256",
          "name": "_index",
          "type": "uint256"
        }
      ],
      "name": "getQueueElement",
      "outputs": [
        {
          "components": [
            {
              "internalType": "bytes32",
              "name": "transactionHash",
              "type": "bytes32"
            },
            {
              "internalType": "uint40",
              "name": "timestamp",
              "type": "uint40"
            },
            {
              "internalType": "uint40",
              "name": "blockNumber",
              "type": "uint40"
            }
          ],
          "internalType": "struct Lib_OVMCodec.QueueElement",
          "name": "_element",
          "type": "tuple"
        }
      ],
      "stateMutability": "view",
      "type": "function"
    },
    {
      "inputs": [],
      "name": "getQueueLength",
      "outputs": [
        {
          "internalType": "uint40",
          "name": "",
          "type": "uint40"
        }
      ],
      "stateMutability": "view",
      "type": "function"
    },
    {
      "inputs": [],
      "name": "getTotalBatches",
      "outputs": [
        {
          "internalType": "uint256",
          "name": "_totalBatches",
          "type": "uint256"
        }
      ],
      "stateMutability": "view",
      "type": "function"
    },
    {
      "inputs": [],
      "name": "getTotalElements",
      "outputs": [
        {
          "internalType": "uint256",
          "name": "_totalElements",
          "type": "uint256"
        }
      ],
      "stateMutability": "view",
      "type": "function"
    },
    {
      "inputs": [],
      "name": "libAddressManager",
      "outputs": [
        {
          "internalType": "contract Lib_AddressManager",
          "name": "",
          "type": "address"
        }
      ],
      "stateMutability": "view",
      "type": "function"
    },
    {
      "inputs": [],
      "name": "maxTransactionGasLimit",
      "outputs": [
        {
          "internalType": "uint256",
          "name": "",
          "type": "uint256"
        }
      ],
      "stateMutability": "view",
      "type": "function"
    },
    {
      "inputs": [],
      "name": "queue",
      "outputs": [
        {
          "internalType": "contract IChainStorageContainer",
          "name": "",
          "type": "address"
        }
      ],
      "stateMutability": "view",
      "type": "function"
    },
    {
      "inputs": [
        {
          "internalType": "string",
          "name": "_name",
          "type": "string"
        }
      ],
      "name": "resolve",
      "outputs": [
        {
          "internalType": "address",
          "name": "",
          "type": "address"
        }
      ],
      "stateMutability": "view",
      "type": "function"
    },
    {
      "inputs": [
        {
          "components": [
            {
              "internalType": "uint256",
              "name": "timestamp",
              "type": "uint256"
            },
            {
              "internalType": "uint256",
              "name": "blockNumber",
              "type": "uint256"
            },
            {
              "internalType": "enum Lib_OVMCodec.QueueOrigin",
              "name": "l1QueueOrigin",
              "type": "uint8"
            },
            {
              "internalType": "address",
              "name": "l1TxOrigin",
              "type": "address"
            },
            {
              "internalType": "address",
              "name": "entrypoint",
              "type": "address"
            },
            {
              "internalType": "uint256",
              "name": "gasLimit",
              "type": "uint256"
            },
            {
              "internalType": "bytes",
              "name": "data",
              "type": "bytes"
            }
          ],
          "internalType": "struct Lib_OVMCodec.Transaction",
          "name": "_transaction",
          "type": "tuple"
        },
        {
          "components": [
            {
              "internalType": "bool",
              "name": "isSequenced",
              "type": "bool"
            },
            {
              "internalType": "uint256",
              "name": "queueIndex",
              "type": "uint256"
            },
            {
              "internalType": "uint256",
              "name": "timestamp",
              "type": "uint256"
            },
            {
              "internalType": "uint256",
              "name": "blockNumber",
              "type": "uint256"
            },
            {
              "internalType": "bytes",
              "name": "txData",
              "type": "bytes"
            }
          ],
          "internalType": "struct Lib_OVMCodec.TransactionChainElement",
          "name": "_txChainElement",
          "type": "tuple"
        },
        {
          "components": [
            {
              "internalType": "uint256",
              "name": "batchIndex",
              "type": "uint256"
            },
            {
              "internalType": "bytes32",
              "name": "batchRoot",
              "type": "bytes32"
            },
            {
              "internalType": "uint256",
              "name": "batchSize",
              "type": "uint256"
            },
            {
              "internalType": "uint256",
              "name": "prevTotalElements",
              "type": "uint256"
            },
            {
              "internalType": "bytes",
              "name": "extraData",
              "type": "bytes"
            }
          ],
          "internalType": "struct Lib_OVMCodec.ChainBatchHeader",
          "name": "_batchHeader",
          "type": "tuple"
        },
        {
          "components": [
            {
              "internalType": "uint256",
              "name": "index",
              "type": "uint256"
            },
            {
              "internalType": "bytes32[]",
              "name": "siblings",
              "type": "bytes32[]"
            }
          ],
          "internalType": "struct Lib_OVMCodec.ChainInclusionProof",
          "name": "_inclusionProof",
          "type": "tuple"
        }
      ],
      "name": "verifyTransaction",
      "outputs": [
        {
          "internalType": "bool",
          "name": "",
          "type": "bool"
        }
      ],
      "stateMutability": "view",
      "type": "function"
    }
  ],
  "transactionHash": "0x2a26f6058aa922e8a52f945b7ce97971cd3b057a6e7001ca7ed336b9987160ac",
  "args": [
    "0xE8cbD28a5cc96ca86513ad8847D344EE634D0A9D",
    2592000,
    172800,
    11000000
  ],
  "solcInputHash": "57c40cf5c155d19ac0bd1dac14b9b230",
  "bytecode": "0x608060405261ea6060206200001591906200014c565b6001553480156200002557600080fd5b506040516200446a3803806200446a83398181016040528101906200004b9190620000da565b83806000806101000a81548173ffffffffffffffffffffffffffffffffffffffff021916908373ffffffffffffffffffffffffffffffffffffffff160217905550508260028190555081600381905550806004819055505050505062000253565b600081519050620000bd816200021f565b92915050565b600081519050620000d48162000239565b92915050565b60008060008060808587031215620000f757620000f66200021a565b5b60006200010787828801620000ac565b94505060206200011a87828801620000c3565b93505060406200012d87828801620000c3565b92505060606200014087828801620000c3565b91505092959194509250565b60006200015982620001e1565b91506200016683620001e1565b9250817fffffffffffffffffffffffffffffffffffffffffffffffffffffffffffffffff0483118215151615620001a257620001a1620001eb565b5b828202905092915050565b6000620001ba82620001c1565b9050919050565b600073ffffffffffffffffffffffffffffffffffffffff82169050919050565b6000819050919050565b7f4e487b7100000000000000000000000000000000000000000000000000000000600052601160045260246000fd5b600080fd5b6200022a81620001ad565b81146200023657600080fd5b50565b6200024481620001e1565b81146200025057600080fd5b50565b61420780620002636000396000f3fe608060405234801561001057600080fd5b50600436106101585760003560e01c80637aa63a86116100c3578063cfdf677e1161007c578063cfdf677e146103ad578063d0f89344146103cb578063e10d29ee146103d5578063e561dddc146103f3578063f722b41a14610411578063facdc5da1461042f57610158565b80637aa63a86146102f9578063876ed5cb146103175780638d38c6c114610335578063b8f7700514610353578063c139eb1514610371578063c2cf696f1461038f57610158565b80634de569ce116101155780634de569ce146102355780635ae6256d146102655780636fee07e0146102835780637350d2b61461029f57806378f4b2f2146102bd5780637a167a8a146102db57610158565b8063138387a41461015d578063299ca4781461017b5780632a7f18be1461019957806337899770146101c9578063461a4478146101e757806346a8d4db14610217575b600080fd5b61016561044b565b6040516101729190613473565b60405180910390f35b610183610451565b604051610190919061319b565b60405180910390f35b6101b360048036038101906101ae9190612b53565b610475565b6040516101c09190613458565b60405180910390f35b6101d1610495565b6040516101de9190613502565b60405180910390f35b61020160048036038101906101fc9190612a33565b6104ac565b60405161020e9190613014565b60405180910390f35b61021f61055f565b60405161022c9190613473565b60405180910390f35b61024f600480360381019061024a9190612a7c565b610565565b60405161025c919061307b565b60405180910390f35b61026d6105a6565b60405161027a9190613502565b60405180910390f35b61029d6004803603810190610298919061296a565b6105bd565b005b6102a7610957565b6040516102b49190613473565b60405180910390f35b6102c561095d565b6040516102d29190613473565b60405180910390f35b6102e3610964565b6040516102f09190613502565b60405180910390f35b61030161097b565b60405161030e9190613473565b60405180910390f35b61031f610999565b60405161032c9190613473565b60405180910390f35b61033d61099f565b60405161034a9190613473565b60405180910390f35b61035b6109a5565b6040516103689190613502565b60405180910390f35b6103796109bc565b6040516103869190613473565b60405180910390f35b6103976109c2565b6040516103a49190613473565b60405180910390f35b6103b56109c7565b6040516103c29190613180565b60405180910390f35b6103d36109ef565b005b6103dd610f49565b6040516103ea9190613180565b60405180910390f35b6103fb610f8e565b6040516104089190613473565b60405180910390f35b61041961101a565b6040516104269190613502565b60405180910390f35b61044960048036038101906104449190612b53565b61103b565b005b60035481565b60008054906101000a900473ffffffffffffffffffffffffffffffffffffffff1681565b61047d61241c565b61048e82610489610f49565b611076565b9050919050565b6000806104a0611220565b50925050508091505090565b60008060009054906101000a900473ffffffffffffffffffffffffffffffffffffffff1673ffffffffffffffffffffffffffffffffffffffff1663bf40fac1836040518263ffffffff1660e01b815260040161050891906131b6565b60206040518083038186803b15801561052057600080fd5b505afa158015610534573d6000803e3d6000fd5b505050506040513d601f19601f82011682018060405250810190610558919061293d565b9050919050565b60015481565b60006001151584600001511515141561058b5761058485858585611321565b905061059e565b61059b85856020015185856114c1565b90505b949350505050565b6000806105b1611220565b93505050508091505090565b61c35081511115610603576040517f08c379a00000000000000000000000000000000000000000000000000000000081526004016105fa906131f8565b60405180910390fd5b600454821115610648576040517f08c379a000000000000000000000000000000000000000000000000000000000815260040161063f90613258565b60405180910390fd5b620186a082101561068e576040517f08c379a000000000000000000000000000000000000000000000000000000000815260040161068590613298565b60405180910390fd5b60015482111561072a5760006020600154846106aa919061375b565b6106b491906136d0565b905060005a90508181116106fd576040517f08c379a00000000000000000000000000000000000000000000000000000000081526004016106f490613398565b60405180910390fd5b60005b825a8361070d919061375b565b101561072657808061071e90613975565b915050610700565b5050505b600033848484604051602001610743949392919061302f565b60405160208183030381529060405280519060200120905060004290504360281b811790506000610772610f49565b90508073ffffffffffffffffffffffffffffffffffffffff1663b298e36b846040518263ffffffff1660e01b81526004016107ad91906130f0565b600060405180830381600087803b1580156107c757600080fd5b505af11580156107db573d6000803e3d6000fd5b505050508073ffffffffffffffffffffffffffffffffffffffff1663b298e36b836040518263ffffffff1660e01b815260040161081891906130f0565b600060405180830381600087803b15801561083257600080fd5b505af1158015610846573d6000803e3d6000fd5b505050506000600160028373ffffffffffffffffffffffffffffffffffffffff16631f7b6d326040518163ffffffff1660e01b815260040160206040518083038186803b15801561089657600080fd5b505afa1580156108aa573d6000803e3d6000fd5b505050506040513d601f19601f820116820180604052508101906108ce9190612b80565b6108d891906136d0565b6108e2919061375b565b9050808773ffffffffffffffffffffffffffffffffffffffff163373ffffffffffffffffffffffffffffffffffffffff167f4b388aecf9fa6cc92253704e5975a6129a4f735bdbd99567df4ed0094ee4ceb58989426040516109469392919061348e565b60405180910390a450505050505050565b61ea6081565b620186a081565b60008061096f611220565b50509150508091505090565b600080610986611220565b50505090508064ffffffffff1691505090565b61c35081565b60045481565b60006109b76109b2610f49565b6115f0565b905090565b60025481565b602081565b60006109ea6040518060600160405280602181526020016141b1602191396104ac565b905090565b600080600060043560d81c925060093560e81c9150600c3560e81c9050610a1461097b565b8364ffffffffff1614610a5c576040517f08c379a0000000000000000000000000000000000000000000000000000000008152600401610a53906132f8565b60405180910390fd5b610a9a6040518060400160405280600d81526020017f4f564d5f53657175656e636572000000000000000000000000000000000000008152506104ac565b73ffffffffffffffffffffffffffffffffffffffff163373ffffffffffffffffffffffffffffffffffffffff1614610b07576040517f08c379a0000000000000000000000000000000000000000000000000000000008152600401610afe90613318565b60405180910390fd5b60008162ffffff166010610b1b9190613701565b600f610b27919061363f565b90508064ffffffffff1660003690501015610b77576040517f08c379a0000000000000000000000000000000000000000000000000000000008152600401610b6e906133f8565b60405180910390fd5b6000610b81610f49565b90506000610b8e826115f0565b9050600060028662ffffff166000369050610ba991906136d0565b610bb39190613701565b67ffffffffffffffff811115610bcc57610bcb613b10565b5b6040519080825280601f01601f191660200182016040528015610bfe5781602001600182028036833780820191505090505b50905060008662ffffff1667ffffffffffffffff811115610c2257610c21613b10565b5b604051908082528060200260200182016040528015610c505781602001602082028036833780820191505090505b5090506000806000610c60610964565b9050610c6a61244e565b60005b8a62ffffff168163ffffffff161015610e5a576000610c918263ffffffff16611683565b905080925060005b83600001518163ffffffff161015610d7b5760008c3560e81c905061c350811115610cf9576040517f08c379a0000000000000000000000000000000000000000000000000000000008152600401610cf0906131f8565b60405180910390fd5b610d0c858e64ffffffffff16838d611700565b898963ffffffff1681518110610d2557610d24613ae1565b5b602002602001018181525050806003610d3e919061363f565b8d610d499190613695565b9c508680610d56906139be565b9750508780610d64906139be565b985050508080610d73906139be565b915050610c99565b5060005b83602001518163ffffffff161015610e45578964ffffffffff168564ffffffffff1610610de1576040517f08c379a0000000000000000000000000000000000000000000000000000000008152600401610dd890613438565b60405180910390fd5b610df18564ffffffffff166117bc565b888863ffffffff1681518110610e0a57610e09613ae1565b5b6020026020010181815250508480610e21906139eb565b9550508680610e2f906139be565b9750508080610e3d906139be565b915050610d7f565b50508080610e52906139be565b915050610c6d565b506000838c62ffffff16610e6e919061378f565b63ffffffff169050600080600084602001511415610e99578360400151915083606001519050610eca565b6000610eb8600187610eab91906137c3565b64ffffffffff168d611076565b90508060200151925080604001519150505b610eeb610ed689611808565b8f62ffffff168564ffffffffff168585611d00565b7f602f1aeac0ca2e7a13e281a9ef0ad7838542712ce16780fa2ecffd351f05f8998386610f1891906137c3565b84610f2161097b565b604051610f309392919061351d565b60405180910390a1505050505050505050505050505050565b6000610f896040518060400160405280601f81526020017f436861696e53746f72616765436f6e7461696e65722d4354432d7175657565008152506104ac565b905090565b6000610f986109c7565b73ffffffffffffffffffffffffffffffffffffffff16631f7b6d326040518163ffffffff1660e01b815260040160206040518083038186803b158015610fdd57600080fd5b505afa158015610ff1573d6000803e3d6000fd5b505050506040513d601f19601f820116820180604052508101906110159190612b80565b905090565b6000611024610964565b61102c6109a5565b61103691906137c3565b905090565b6040517f08c379a000000000000000000000000000000000000000000000000000000000815260040161106d906131d8565b60405180910390fd5b61107e61241c565b600060028461108d9190613701565b905060008373ffffffffffffffffffffffffffffffffffffffff16639507d39a836040518263ffffffff1660e01b81526004016110ca91906134e7565b60206040518083038186803b1580156110e257600080fd5b505afa1580156110f6573d6000803e3d6000fd5b505050506040513d601f19601f8201168201806040525081019061111a9190612a06565b905060008473ffffffffffffffffffffffffffffffffffffffff16639507d39a6001856111479190613695565b6040518263ffffffff1660e01b815260040161116391906134e7565b60206040518083038186803b15801561117b57600080fd5b505afa15801561118f573d6000803e3d6000fd5b505050506040513d601f19601f820116820180604052508101906111b39190612a06565b905060008064ffffffffff831691507fffffffffffffffffffffffffffffffffffffffffffffffffffffff0000000000831660281c905060405180606001604052808581526020018364ffffffffff1681526020018264ffffffffff168152509550505050505092915050565b60008060008060006112306109c7565b73ffffffffffffffffffffffffffffffffffffffff1663ccf8f9696040518163ffffffff1660e01b815260040160206040518083038186803b15801561127557600080fd5b505afa158015611289573d6000803e3d6000fd5b505050506040513d601f19601f820116820180604052508101906112ad91906129d9565b90506000806000808460281c945064ffffffffff8516935069ffffffffff0000000000851660281c92506effffffffff00000000000000000000851660501c915073ffffffffff000000000000000000000000000000851660781c9050838383839850985098509850505050505090919293565b60008061132d85611ede565b905061133a818585611f9d565b611379576040517f08c379a000000000000000000000000000000000000000000000000000000000815260040161137090613218565b60405180910390fd5b84606001518660200151148015611397575084604001518660000151145b80156113d35750600073ffffffffffffffffffffffffffffffffffffffff16866080015173ffffffffffffffffffffffffffffffffffffffff16145b80156113e457506004548660a00151145b80156114205750600073ffffffffffffffffffffffffffffffffffffffff16866060015173ffffffffffffffffffffffffffffffffffffffff16145b801561145457506000600181111561143b5761143a613ab2565b5b8660400151600181111561145257611451613ab2565b5b145b801561147557508460800151805190602001208660c0015180519060200120145b6114b4576040517f08c379a00000000000000000000000000000000000000000000000000000000081526004016114ab90613238565b60405180910390fd5b6001915050949350505050565b6000806114cd856117bc565b90506114da818585611f9d565b611519576040517f08c379a0000000000000000000000000000000000000000000000000000000008152600401611510906133b8565b60405180910390fd5b6000866060015187608001518860a001518960c00151604051602001611542949392919061302f565b604051602081830303815290604052805190602001209050600061156587610475565b905081816000015114801561158857508760000151816020015164ffffffffff16145b80156115a257508760200151816040015164ffffffffff16145b6115e1576040517f08c379a00000000000000000000000000000000000000000000000000000000081526004016115d890613338565b60405180910390fd5b60019350505050949350505050565b600060028273ffffffffffffffffffffffffffffffffffffffff16631f7b6d326040518163ffffffff1660e01b815260040160206040518083038186803b15801561163a57600080fd5b505afa15801561164e573d6000803e3d6000fd5b505050506040513d601f19601f820116820180604052508101906116729190612b80565b61167c91906136d0565b9050919050565b61168b61244e565b600060108361169a9190613701565b600f6116a6919061363f565b9050600080600080843560e81c9350600385013560e81c9250600685013560d81c9150600b85013560d81c905060405180608001604052808581526020018481526020018381526020018281525095505050505050919050565b60008151836041611711919061363f565b111561177357826041611724919061363f565b67ffffffffffffffff81111561173d5761173c613b10565b5b6040519080825280601f01601f19166020018201604052801561176f5781602001600182028036833780820191505090505b5091505b6000856040015190506000866060015190506000602085016001815383600182015282602182015286600389016041830137866041018120915050809350505050949350505050565b60006118016040518060a001604052806000151581526020018481526020016000815260200160008152602001604051806020016040528060008152508152506120e3565b9050919050565b60008082511161184d576040517f08c379a000000000000000000000000000000000000000000000000000000000815260040161184490613418565b60405180910390fd5b60018251141561187a578160008151811061186b5761186a613ae1565b5b60200260200101519050611cfb565b60006040518061020001604052807f290decd9548b62a8d60345a988386fc84ba6bc95484008f6362f93160ef3e56381526020017f633dc4d7da7256660a892f8f1604a44b5432649cc8ec5cb3ced4c4e6ac94dd1d81526020017f890740a8eb06ce9be422cb8da5cdafc2b58c0a5e24036c578de2a433c828ff7d81526020017f3b8ec09e026fdc305365dfc94e189a81b38c7597b3d941c279f042e8206e0bd881526020017fecd50eee38e386bd62be9bedb990706951b65fe053bd9d8a521af753d139e2da81526020017fdefff6d330bb5403f63b14f33b578274160de3a50df4efecf0e0db73bcdd3da581526020017f617bdd11f7c0a11f49db22f629387a12da7596f9d1704d7465177c63d88ec7d781526020017f292c23a9aa1d8bea7e2435e555a4a60e379a5a35f3f452bae60121073fb6eead81526020017fe1cea92ed99acdcb045a6726b2f87107e8a61620a232cf4d7d5b5766b3952e1081526020017f7ad66c0a68c72cb89e4fb4303841966e4062a76ab97451e3b9fb526a5ceb7f8281526020017fe026cc5a4aed3c22a58cbd3d2ac754c9352c5436f638042dca99034e8363651681526020017f3d04cffd8b46a874edf5cfae63077de85f849a660426697b06a829c70dd1409c81526020017fad676aa337a485e4728a0b240d92b3ef7b3c372d06d189322bfd5f61f1e7203e81526020017fa2fca4a49658f9fab7aa63289c91b7c7b6c832a6d0e69334ff5b0a3483d09dab81526020017f4ebfd9cd7bca2505f7bef59cc1c12ecc708fff26ae4af19abe852afe9e20c86281526020017f2def10d13dd169f550f578bda343d9717a138562e0093b380a1120789d53cf1081525090506000604067ffffffffffffffff811115611b0557611b04613b10565b5b6040519080825280601f01601f191660200182016040528015611b375781602001600182028036833780820191505090505b509050600080600086519050600080805b6001841115611cd457600284611b5e91906136d0565b91506001600285611b6f9190613a23565b14905060005b82811015611c21578a816002611b8b9190613701565b81518110611b9c57611b9b613ae1565b5b602002602001015196508a6001826002611bb69190613701565b611bc0919061363f565b81518110611bd157611bd0613ae1565b5b6020026020010151955086602089015285604089015287805190602001208b8281518110611c0257611c01613ae1565b5b6020026020010181815250508080611c1990613975565b915050611b75565b508015611ca25789600185611c36919061375b565b81518110611c4757611c46613ae1565b5b60200260200101519550878360108110611c6457611c63613ae1565b5b602002015160001b945085602088015284604088015286805190602001208a8381518110611c9557611c94613ae1565b5b6020026020010181815250505b80611cae576000611cb1565b60015b60ff1682611cbf919061363f565b93508280611ccc90613975565b935050611b48565b89600081518110611ce857611ce7613ae1565b5b6020026020010151985050505050505050505b919050565b6000611d0a6109c7565b9050600080611d17611220565b50509150915060006040518060a001604052808573ffffffffffffffffffffffffffffffffffffffff16631f7b6d326040518163ffffffff1660e01b815260040160206040518083038186803b158015611d7057600080fd5b505afa158015611d84573d6000803e3d6000fd5b505050506040513d601f19601f82011682018060405250810190611da89190612b80565b81526020018a81526020018981526020018464ffffffffff16815260200160405180602001604052806000815250815250905080600001517f127186556e7be68c7e31263195225b4de02820707889540969f62c05cf73525e8260200151836040015184606001518560800151604051611e259493929190613134565b60405180910390a26000611e388261212f565b90506000611e62836040015186611e4f9190613695565b8a86611e5b9190613695565b8a8a612175565b90508573ffffffffffffffffffffffffffffffffffffffff16632015276c83836040518363ffffffff1660e01b8152600401611e9f92919061310b565b600060405180830381600087803b158015611eb957600080fd5b505af1158015611ecd573d6000803e3d6000fd5b505050505050505050505050505050565b60008082608001519050600083608001515190506000816041611f01919061363f565b67ffffffffffffffff811115611f1a57611f19613b10565b5b6040519080825280601f01601f191660200182016040528015611f4c5781602001600182028036833780820191505090505b5090506000856040015190506000866060015190506000602084016001815383600182015282602182015285604182018760208a0160045afa50856041018120915050809650505050505050919050565b6000611fa76109c7565b73ffffffffffffffffffffffffffffffffffffffff16639507d39a84600001516040518263ffffffff1660e01b8152600401611fe391906134cc565b60206040518083038186803b158015611ffb57600080fd5b505afa15801561200f573d6000803e3d6000fd5b505050506040513d601f19601f820116820180604052508101906120339190612a06565b61203c8461212f565b1461207c576040517f08c379a000000000000000000000000000000000000000000000000000000000815260040161207390613378565b60405180910390fd5b6120998360200151858460000151856020015187604001516121a5565b6120d8576040517f08c379a00000000000000000000000000000000000000000000000000000000081526004016120cf90613278565b60405180910390fd5b600190509392505050565b600081600001518260200151836040015184606001518560800151604051602001612112959493929190613096565b604051602081830303815290604052805190602001209050919050565b600081602001518260400151836060015184608001516040516020016121589493929190613134565b604051602081830303815290604052805190602001209050919050565b6000808590508460281b811790508360501b811790508260781b811790508060281b905080915050949350505050565b60008082116121e9576040517f08c379a00000000000000000000000000000000000000000000000000000000081526004016121e090613358565b60405180910390fd5b81841061222b576040517f08c379a0000000000000000000000000000000000000000000000000000000008152600401612222906132b8565b60405180910390fd5b6122348261234c565b835114612276576040517f08c379a000000000000000000000000000000000000000000000000000000000815260040161226d906133d8565b60405180910390fd5b600085905060005b845181101561233c57600180871614156122dc578481815181106122a5576122a4613ae1565b5b6020026020010151826040516020016122bf929190612fe8565b604051602081830303815290604052805190602001209150612322565b818582815181106122f0576122ef613ae1565b5b6020026020010151604051602001612309929190612fe8565b6040516020818303038152906040528051906020012091505b600186901c9550808061233490613975565b91505061227e565b5080871491505095945050505050565b6000808211612390576040517f08c379a0000000000000000000000000000000000000000000000000000000008152600401612387906132d8565b60405180910390fd5b60018214156123a25760009050612417565b6000829050600080608090505b600181106123f5576000816001836001901b6123cb919061375b565b901b8416146123e95780826123e0919061363f565b91508083901c92505b600181901c90506123af565b5083816001901b146124115760018161240e919061363f565b90505b80925050505b919050565b604051806060016040528060008019168152602001600064ffffffffff168152602001600064ffffffffff1681525090565b6040518060800160405280600081526020016000815260200160008152602001600081525090565b600061248961248484613579565b613554565b905080838252602082019050828560208602820111156124ac576124ab613b4e565b5b60005b858110156124dc57816124c288826125ec565b8452602084019350602083019250506001810190506124af565b5050509392505050565b60006124f96124f4846135a5565b613554565b90508281526020810184848401111561251557612514613b53565b5b612520848285613902565b509392505050565b600061253b612536846135d6565b613554565b90508281526020810184848401111561255757612556613b53565b5b612562848285613902565b509392505050565b6000813590506125798161412d565b92915050565b60008151905061258e8161412d565b92915050565b600082601f8301126125a9576125a8613b3f565b5b81356125b9848260208601612476565b91505092915050565b6000813590506125d181614144565b92915050565b6000815190506125e68161415b565b92915050565b6000813590506125fb81614172565b92915050565b60008151905061261081614172565b92915050565b600082601f83011261262b5761262a613b3f565b5b813561263b8482602086016124e6565b91505092915050565b60008135905061265381614189565b92915050565b600082601f83011261266e5761266d613b3f565b5b813561267e848260208601612528565b91505092915050565b600060a0828403121561269d5761269c613b44565b5b6126a760a0613554565b905060006126b784828501612913565b60008301525060206126cb848285016125ec565b60208301525060406126df84828501612913565b60408301525060606126f384828501612913565b606083015250608082013567ffffffffffffffff81111561271757612716613b49565b5b61272384828501612616565b60808301525092915050565b60006040828403121561274557612744613b44565b5b61274f6040613554565b9050600061275f84828501612913565b600083015250602082013567ffffffffffffffff81111561278357612782613b49565b5b61278f84828501612594565b60208301525092915050565b600060a082840312156127b1576127b0613b44565b5b6127bb60a0613554565b905060006127cb848285016125c2565b60008301525060206127df84828501612913565b60208301525060406127f384828501612913565b604083015250606061280784828501612913565b606083015250608082013567ffffffffffffffff81111561282b5761282a613b49565b5b61283784828501612616565b60808301525092915050565b600060e0828403121561285957612858613b44565b5b61286360e0613554565b9050600061287384828501612913565b600083015250602061288784828501612913565b602083015250604061289b84828501612644565b60408301525060606128af8482850161256a565b60608301525060806128c38482850161256a565b60808301525060a06128d784828501612913565b60a08301525060c082013567ffffffffffffffff8111156128fb576128fa613b49565b5b61290784828501612616565b60c08301525092915050565b60008135905061292281614199565b92915050565b60008151905061293781614199565b92915050565b60006020828403121561295357612952613b5d565b5b60006129618482850161257f565b91505092915050565b60008060006060848603121561298357612982613b5d565b5b60006129918682870161256a565b93505060206129a286828701612913565b925050604084013567ffffffffffffffff8111156129c3576129c2613b58565b5b6129cf86828701612616565b9150509250925092565b6000602082840312156129ef576129ee613b5d565b5b60006129fd848285016125d7565b91505092915050565b600060208284031215612a1c57612a1b613b5d565b5b6000612a2a84828501612601565b91505092915050565b600060208284031215612a4957612a48613b5d565b5b600082013567ffffffffffffffff811115612a6757612a66613b58565b5b612a7384828501612659565b91505092915050565b60008060008060808587031215612a9657612a95613b5d565b5b600085013567ffffffffffffffff811115612ab457612ab3613b58565b5b612ac087828801612843565b945050602085013567ffffffffffffffff811115612ae157612ae0613b58565b5b612aed8782880161279b565b935050604085013567ffffffffffffffff811115612b0e57612b0d613b58565b5b612b1a87828801612687565b925050606085013567ffffffffffffffff811115612b3b57612b3a613b58565b5b612b478782880161272f565b91505092959194509250565b600060208284031215612b6957612b68613b5d565b5b6000612b7784828501612913565b91505092915050565b600060208284031215612b9657612b95613b5d565b5b6000612ba484828501612928565b91505092915050565b612bb6816137f7565b82525050565b612bc581613809565b82525050565b612bd481613815565b82525050565b612be381613841565b82525050565b612bf281613841565b82525050565b612c09612c0482613841565b613a19565b82525050565b6000612c1a82613607565b612c24818561361d565b9350612c34818560208601613911565b612c3d81613b62565b840191505092915050565b612c5181613896565b82525050565b612c60816138a8565b82525050565b6000612c7182613612565b612c7b818561362e565b9350612c8b818560208601613911565b612c9481613b62565b840191505092915050565b6000612cac60278361362e565b9150612cb782613b73565b604082019050919050565b6000612ccf603d8361362e565b9150612cda82613bc2565b604082019050919050565b6000612cf2602e8361362e565b9150612cfd82613c11565b604082019050919050565b6000612d15601e8361362e565b9150612d2082613c60565b602082019050919050565b6000612d38603d8361362e565b9150612d4382613c89565b604082019050919050565b6000612d5b60188361362e565b9150612d6682613cd8565b602082019050919050565b6000612d7e60298361362e565b9150612d8982613d01565b604082019050919050565b6000612da160248361362e565b9150612dac82613d50565b604082019050919050565b6000612dc460308361362e565b9150612dcf82613d9f565b604082019050919050565b6000612de7603d8361362e565b9150612df282613dee565b604082019050919050565b6000612e0a602d8361362e565b9150612e1582613e3d565b604082019050919050565b6000612e2d601a8361362e565b9150612e3882613e8c565b602082019050919050565b6000612e5060378361362e565b9150612e5b82613eb5565b604082019050919050565b6000612e7360158361362e565b9150612e7e82613f04565b602082019050919050565b6000612e96602b8361362e565b9150612ea182613f2d565b604082019050919050565b6000612eb9602a8361362e565b9150612ec482613f7c565b604082019050919050565b6000612edc604d8361362e565b9150612ee782613fcb565b606082019050919050565b6000612eff60228361362e565b9150612f0a82614040565b604082019050919050565b6000612f2260348361362e565b9150612f2d8261408f565b604082019050919050565b6000612f4560298361362e565b9150612f50826140de565b604082019050919050565b606082016000820151612f716000850182612bda565b506020820151612f846020850182612fca565b506040820151612f976040850182612fca565b50505050565b612fa68161386b565b82525050565b612fb5816138de565b82525050565b612fc4816138f0565b82525050565b612fd381613885565b82525050565b612fe281613885565b82525050565b6000612ff48285612bf8565b6020820191506130048284612bf8565b6020820191508190509392505050565b60006020820190506130296000830184612bad565b92915050565b60006080820190506130446000830187612bad565b6130516020830186612bad565b61305e6040830185612f9d565b81810360608301526130708184612c0f565b905095945050505050565b60006020820190506130906000830184612bbc565b92915050565b600060a0820190506130ab6000830188612bbc565b6130b86020830187612f9d565b6130c56040830186612f9d565b6130d26060830185612f9d565b81810360808301526130e48184612c0f565b90509695505050505050565b60006020820190506131056000830184612be9565b92915050565b60006040820190506131206000830185612be9565b61312d6020830184612bcb565b9392505050565b60006080820190506131496000830187612be9565b6131566020830186612f9d565b6131636040830185612f9d565b81810360608301526131758184612c0f565b905095945050505050565b60006020820190506131956000830184612c48565b92915050565b60006020820190506131b06000830184612c57565b92915050565b600060208201905081810360008301526131d08184612c66565b905092915050565b600060208201905081810360008301526131f181612c9f565b9050919050565b6000602082019050818103600083015261321181612cc2565b9050919050565b6000602082019050818103600083015261323181612ce5565b9050919050565b6000602082019050818103600083015261325181612d08565b9050919050565b6000602082019050818103600083015261327181612d2b565b9050919050565b6000602082019050818103600083015261329181612d4e565b9050919050565b600060208201905081810360008301526132b181612d71565b9050919050565b600060208201905081810360008301526132d181612d94565b9050919050565b600060208201905081810360008301526132f181612db7565b9050919050565b6000602082019050818103600083015261331181612dda565b9050919050565b6000602082019050818103600083015261333181612dfd565b9050919050565b6000602082019050818103600083015261335181612e20565b9050919050565b6000602082019050818103600083015261337181612e43565b9050919050565b6000602082019050818103600083015261339181612e66565b9050919050565b600060208201905081810360008301526133b181612e89565b9050919050565b600060208201905081810360008301526133d181612eac565b9050919050565b600060208201905081810360008301526133f181612ecf565b9050919050565b6000602082019050818103600083015261341181612ef2565b9050919050565b6000602082019050818103600083015261343181612f15565b9050919050565b6000602082019050818103600083015261345181612f38565b9050919050565b600060608201905061346d6000830184612f5b565b92915050565b60006020820190506134886000830184612f9d565b92915050565b60006060820190506134a36000830186612f9d565b81810360208301526134b58185612c0f565b90506134c46040830184612f9d565b949350505050565b60006020820190506134e16000830184612fac565b92915050565b60006020820190506134fc6000830184612fbb565b92915050565b60006020820190506135176000830184612fd9565b92915050565b60006060820190506135326000830186612fbb565b61353f6020830185612fbb565b61354c6040830184612f9d565b949350505050565b600061355e61356f565b905061356a8282613944565b919050565b6000604051905090565b600067ffffffffffffffff82111561359457613593613b10565b5b602082029050602081019050919050565b600067ffffffffffffffff8211156135c0576135bf613b10565b5b6135c982613b62565b9050602081019050919050565b600067ffffffffffffffff8211156135f1576135f0613b10565b5b6135fa82613b62565b9050602081019050919050565b600081519050919050565b600081519050919050565b600082825260208201905092915050565b600082825260208201905092915050565b600061364a8261386b565b91506136558361386b565b9250827fffffffffffffffffffffffffffffffffffffffffffffffffffffffffffffffff0382111561368a57613689613a54565b5b828201905092915050565b60006136a082613885565b91506136ab83613885565b92508264ffffffffff038211156136c5576136c4613a54565b5b828201905092915050565b60006136db8261386b565b91506136e68361386b565b9250826136f6576136f5613a83565b5b828204905092915050565b600061370c8261386b565b91506137178361386b565b9250817fffffffffffffffffffffffffffffffffffffffffffffffffffffffffffffffff04831182151516156137505761374f613a54565b5b828202905092915050565b60006137668261386b565b91506137718361386b565b92508282101561378457613783613a54565b5b828203905092915050565b600061379a82613875565b91506137a583613875565b9250828210156137b8576137b7613a54565b5b828203905092915050565b60006137ce82613885565b91506137d983613885565b9250828210156137ec576137eb613a54565b5b828203905092915050565b60006138028261384b565b9050919050565b60008115159050919050565b60007fffffffffffffffffffffffffffffffffffffffffffffffffffffff000000000082169050919050565b6000819050919050565b600073ffffffffffffffffffffffffffffffffffffffff82169050919050565b6000819050919050565b600063ffffffff82169050919050565b600064ffffffffff82169050919050565b60006138a1826138ba565b9050919050565b60006138b3826138ba565b9050919050565b60006138c5826138cc565b9050919050565b60006138d78261384b565b9050919050565b60006138e982613875565b9050919050565b60006138fb82613885565b9050919050565b82818337600083830152505050565b60005b8381101561392f578082015181840152602081019050613914565b8381111561393e576000848401525b50505050565b61394d82613b62565b810181811067ffffffffffffffff8211171561396c5761396b613b10565b5b80604052505050565b60006139808261386b565b91507fffffffffffffffffffffffffffffffffffffffffffffffffffffffffffffffff8214156139b3576139b2613a54565b5b600182019050919050565b60006139c982613875565b915063ffffffff8214156139e0576139df613a54565b5b600182019050919050565b60006139f682613885565b915064ffffffffff821415613a0e57613a0d613a54565b5b600182019050919050565b6000819050919050565b6000613a2e8261386b565b9150613a398361386b565b925082613a4957613a48613a83565b5b828206905092915050565b7f4e487b7100000000000000000000000000000000000000000000000000000000600052601160045260246000fd5b7f4e487b7100000000000000000000000000000000000000000000000000000000600052601260045260246000fd5b7f4e487b7100000000000000000000000000000000000000000000000000000000600052602160045260246000fd5b7f4e487b7100000000000000000000000000000000000000000000000000000000600052603260045260246000fd5b7f4e487b7100000000000000000000000000000000000000000000000000000000600052604160045260246000fd5b600080fd5b600080fd5b600080fd5b600080fd5b600080fd5b600080fd5b600080fd5b6000601f19601f8301169050919050565b7f617070656e64517565756542617463682069732063757272656e746c7920646960008201527f7361626c65642e00000000000000000000000000000000000000000000000000602082015250565b7f5472616e73616374696f6e20646174612073697a652065786365656473206d6160008201527f78696d756d20666f7220726f6c6c7570207472616e73616374696f6e2e000000602082015250565b7f496e76616c69642053657175656e636572207472616e73616374696f6e20696e60008201527f636c7573696f6e2070726f6f662e000000000000000000000000000000000000602082015250565b7f496e76616c69642053657175656e636572207472616e73616374696f6e2e0000600082015250565b7f5472616e73616374696f6e20676173206c696d69742065786365656473206d6160008201527f78696d756d20666f7220726f6c6c7570207472616e73616374696f6e2e000000602082015250565b7f496e76616c696420696e636c7573696f6e2070726f6f662e0000000000000000600082015250565b7f5472616e73616374696f6e20676173206c696d697420746f6f206c6f7720746f60008201527f20656e71756575652e0000000000000000000000000000000000000000000000602082015250565b7f4c69625f4d65726b6c65547265653a20496e646578206f7574206f6620626f7560008201527f6e64732e00000000000000000000000000000000000000000000000000000000602082015250565b7f4c69625f4d65726b6c65547265653a2043616e6e6f7420636f6d70757465206360008201527f65696c286c6f675f3229206f6620302e00000000000000000000000000000000602082015250565b7f41637475616c20626174636820737461727420696e64657820646f6573206e6f60008201527f74206d6174636820657870656374656420737461727420696e6465782e000000602082015250565b7f46756e6374696f6e2063616e206f6e6c792062652063616c6c6564206279207460008201527f68652053657175656e6365722e00000000000000000000000000000000000000602082015250565b7f496e76616c6964205175657565207472616e73616374696f6e2e000000000000600082015250565b7f4c69625f4d65726b6c65547265653a20546f74616c206c6561766573206d757360008201527f742062652067726561746572207468616e207a65726f2e000000000000000000602082015250565b7f496e76616c6964206261746368206865616465722e0000000000000000000000600082015250565b7f496e73756666696369656e742067617320666f72204c322072617465206c696d60008201527f6974696e67206275726e2e000000000000000000000000000000000000000000602082015250565b7f496e76616c6964205175657565207472616e73616374696f6e20696e636c757360008201527f696f6e2070726f6f662e00000000000000000000000000000000000000000000602082015250565b7f4c69625f4d65726b6c65547265653a20546f74616c207369626c696e6773206460008201527f6f6573206e6f7420636f72726563746c7920636f72726573706f6e6420746f2060208201527f746f74616c206c65617665732e00000000000000000000000000000000000000604082015250565b7f4e6f7420656e6f756768204261746368436f6e74657874732070726f7669646560008201527f642e000000000000000000000000000000000000000000000000000000000000602082015250565b7f4c69625f4d65726b6c65547265653a204d7573742070726f766964652061742060008201527f6c65617374206f6e65206c65616620686173682e000000000000000000000000602082015250565b7f4e6f7420656e6f75676820717565756564207472616e73616374696f6e73207460008201527f6f20617070656e642e0000000000000000000000000000000000000000000000602082015250565b614136816137f7565b811461414157600080fd5b50565b61414d81613809565b811461415857600080fd5b50565b61416481613815565b811461416f57600080fd5b50565b61417b81613841565b811461418657600080fd5b50565b6002811061419657600080fd5b50565b6141a28161386b565b81146141ad57600080fd5b5056fe436861696e53746f72616765436f6e7461696e65722d4354432d62617463686573a2646970667358221220236ae3bcef600d20d8277402a00f170ceec3d3b940777e03b30a774029f54a4664736f6c63430008070033",
  "devdoc": {
    "details": "The Canonical Transaction Chain (CTC) contract is an append-only log of transactions which must be applied to the rollup state. It defines the ordering of rollup transactions by writing them to the 'CTC:batches' instance of the Chain Storage Container. The CTC also allows any account to 'enqueue' an L2 transaction, which will require that the Sequencer will eventually append it to the rollup state. If the Sequencer does not include an enqueued transaction within the 'force inclusion period', then any account may force it to be included by calling appendQueueBatch(). Runtime target: EVM",
    "kind": "dev",
    "methods": {
      "appendSequencerBatch()": {
        "details": "This function uses a custom encoding scheme for efficiency reasons. .param _shouldStartAtElement Specific batch we expect to start appending to. .param _totalElementsToAppend Total number of batch elements we expect to append. .param _contexts Array of batch contexts. .param _transactionDataFields Array of raw transaction data."
      },
      "batches()": {
        "returns": {
          "_0": "Reference to the batch storage container."
        }
      },
      "enqueue(address,uint256,bytes)": {
        "params": {
          "_data": "Transaction data.",
          "_gasLimit": "Gas limit for the enqueued L2 transaction.",
          "_target": "Target L2 contract to send the transaction to."
        }
      },
      "getLastBlockNumber()": {
        "returns": {
          "_0": "Blocknumber for the last transaction."
        }
      },
      "getLastTimestamp()": {
        "returns": {
          "_0": "Timestamp for the last transaction."
        }
      },
      "getNextQueueIndex()": {
        "returns": {
          "_0": "Index for the next queue element."
        }
      },
      "getNumPendingQueueElements()": {
        "returns": {
          "_0": "Number of pending queue elements."
        }
      },
      "getQueueElement(uint256)": {
        "params": {
          "_index": "Index of the queue element to access."
        },
        "returns": {
          "_element": "Queue element at the given index."
        }
      },
      "getQueueLength()": {
        "returns": {
          "_0": "Length of the queue."
        }
      },
      "getTotalBatches()": {
        "returns": {
          "_totalBatches": "Total submitted batches."
        }
      },
      "getTotalElements()": {
        "returns": {
          "_totalElements": "Total submitted elements."
        }
      },
      "queue()": {
        "returns": {
          "_0": "Reference to the queue storage container."
        }
      },
      "resolve(string)": {
        "params": {
          "_name": "Name to resolve an address for."
        },
        "returns": {
          "_0": "Address associated with the given name."
        }
      },
      "verifyTransaction((uint256,uint256,uint8,address,address,uint256,bytes),(bool,uint256,uint256,uint256,bytes),(uint256,bytes32,uint256,uint256,bytes),(uint256,bytes32[]))": {
        "params": {
          "_batchHeader": "Header of the batch the transaction was included in.",
          "_inclusionProof": "Inclusion proof for the provided transaction chain element.",
          "_transaction": "Transaction to verify.",
          "_txChainElement": "Transaction chain element corresponding to the transaction."
        },
        "returns": {
          "_0": "True if the transaction exists in the CTC, false if not."
        }
      }
    },
    "title": "CanonicalTransactionChain",
    "version": 1
  },
  "userdoc": {
    "kind": "user",
    "methods": {
      "appendQueueBatch(uint256)": {
        "notice": "Appends a given number of queued transactions as a single batch. param _numQueuedTransactions Number of transactions to append."
      },
      "appendSequencerBatch()": {
        "notice": "Allows the sequencer to append a batch of transactions."
      },
      "batches()": {
        "notice": "Accesses the batch storage container."
      },
      "enqueue(address,uint256,bytes)": {
        "notice": "Adds a transaction to the queue."
      },
      "getLastBlockNumber()": {
        "notice": "Returns the blocknumber of the last transaction."
      },
      "getLastTimestamp()": {
        "notice": "Returns the timestamp of the last transaction."
      },
      "getNextQueueIndex()": {
        "notice": "Returns the index of the next element to be enqueued."
      },
      "getNumPendingQueueElements()": {
        "notice": "Get the number of queue elements which have not yet been included."
      },
      "getQueueElement(uint256)": {
        "notice": "Gets the queue element at a particular index."
      },
      "getQueueLength()": {
        "notice": "Retrieves the length of the queue, including both pending and canonical transactions."
      },
      "getTotalBatches()": {
        "notice": "Retrieves the total number of batches submitted."
      },
      "getTotalElements()": {
        "notice": "Retrieves the total number of elements submitted."
      },
      "queue()": {
        "notice": "Accesses the queue storage container."
      },
      "resolve(string)": {
        "notice": "Resolves the address associated with a given name."
      },
      "verifyTransaction((uint256,uint256,uint8,address,address,uint256,bytes),(bool,uint256,uint256,uint256,bytes),(uint256,bytes32,uint256,uint256,bytes),(uint256,bytes32[]))": {
        "notice": "Verifies whether a transaction is included in the chain."
      }
    },
    "version": 1
  },
  "storageLayout": {
    "storage": [
      {
        "astId": 7832,
        "contract": "contracts/L1/rollup/CanonicalTransactionChain.sol:CanonicalTransactionChain",
        "label": "libAddressManager",
        "offset": 0,
        "slot": "0",
        "type": "t_contract(Lib_AddressManager)7824"
      },
      {
        "astId": 3315,
        "contract": "contracts/L1/rollup/CanonicalTransactionChain.sol:CanonicalTransactionChain",
        "label": "ENQUEUE_L2_GAS_PREPAID",
        "offset": 0,
        "slot": "1",
        "type": "t_uint256"
      },
      {
        "astId": 3332,
        "contract": "contracts/L1/rollup/CanonicalTransactionChain.sol:CanonicalTransactionChain",
        "label": "forceInclusionPeriodSeconds",
        "offset": 0,
        "slot": "2",
        "type": "t_uint256"
      },
      {
        "astId": 3334,
        "contract": "contracts/L1/rollup/CanonicalTransactionChain.sol:CanonicalTransactionChain",
        "label": "forceInclusionPeriodBlocks",
        "offset": 0,
        "slot": "3",
        "type": "t_uint256"
      },
      {
        "astId": 3336,
        "contract": "contracts/L1/rollup/CanonicalTransactionChain.sol:CanonicalTransactionChain",
        "label": "maxTransactionGasLimit",
        "offset": 0,
        "slot": "4",
        "type": "t_uint256"
      }
    ],
    "types": {
      "t_contract(Lib_AddressManager)7824": {
        "encoding": "inplace",
        "label": "contract Lib_AddressManager",
        "numberOfBytes": "20"
      },
      "t_uint256": {
        "encoding": "inplace",
        "label": "uint256",
        "numberOfBytes": "32"
      }
    }
  }
}