{
  "address": "0xb09E58756F293091760FC8242A9F92d532E92e30",
  "abi": [
    {
      "inputs": [
        {
          "internalType": "address",
          "name": "_libAddressManager",
          "type": "address"
        },
        {
          "internalType": "string",
          "name": "_owner",
          "type": "string"
        }
      ],
      "stateMutability": "nonpayable",
      "type": "constructor"
    },
    {
      "inputs": [
        {
          "internalType": "uint256",
          "name": "_index",
          "type": "uint256"
        },
        {
          "internalType": "bytes27",
          "name": "_globalMetadata",
          "type": "bytes27"
        }
      ],
      "name": "deleteElementsAfterInclusive",
      "outputs": [],
      "stateMutability": "nonpayable",
      "type": "function"
    },
    {
      "inputs": [
        {
          "internalType": "uint256",
          "name": "_index",
          "type": "uint256"
        }
      ],
      "name": "deleteElementsAfterInclusive",
      "outputs": [],
      "stateMutability": "nonpayable",
      "type": "function"
    },
    {
      "inputs": [
        {
          "internalType": "uint256",
          "name": "_index",
          "type": "uint256"
        }
      ],
      "name": "get",
      "outputs": [
        {
          "internalType": "bytes32",
          "name": "",
          "type": "bytes32"
        }
      ],
      "stateMutability": "view",
      "type": "function"
    },
    {
      "inputs": [],
      "name": "getGlobalMetadata",
      "outputs": [
        {
          "internalType": "bytes27",
          "name": "",
          "type": "bytes27"
        }
      ],
      "stateMutability": "view",
      "type": "function"
    },
    {
      "inputs": [],
      "name": "length",
      "outputs": [
        {
          "internalType": "uint256",
          "name": "",
          "type": "uint256"
        }
      ],
      "stateMutability": "view",
      "type": "function"
    },
    {
      "inputs": [],
      "name": "libAddressManager",
      "outputs": [
        {
          "internalType": "contract Lib_AddressManager",
          "name": "",
          "type": "address"
        }
      ],
      "stateMutability": "view",
      "type": "function"
    },
    {
      "inputs": [],
      "name": "owner",
      "outputs": [
        {
          "internalType": "string",
          "name": "",
          "type": "string"
        }
      ],
      "stateMutability": "view",
      "type": "function"
    },
    {
      "inputs": [
        {
          "internalType": "bytes32",
          "name": "_object",
          "type": "bytes32"
        },
        {
          "internalType": "bytes27",
          "name": "_globalMetadata",
          "type": "bytes27"
        }
      ],
      "name": "push",
      "outputs": [],
      "stateMutability": "nonpayable",
      "type": "function"
    },
    {
      "inputs": [
        {
          "internalType": "bytes32",
          "name": "_object",
          "type": "bytes32"
        }
      ],
      "name": "push",
      "outputs": [],
      "stateMutability": "nonpayable",
      "type": "function"
    },
    {
      "inputs": [
        {
          "internalType": "string",
          "name": "_name",
          "type": "string"
        }
      ],
      "name": "resolve",
      "outputs": [
        {
          "internalType": "address",
          "name": "",
          "type": "address"
        }
      ],
      "stateMutability": "view",
      "type": "function"
    },
    {
      "inputs": [
        {
          "internalType": "bytes27",
          "name": "_globalMetadata",
          "type": "bytes27"
        }
      ],
      "name": "setGlobalMetadata",
      "outputs": [],
      "stateMutability": "nonpayable",
      "type": "function"
    }
  ],
  "transactionHash": "0x490cf1e94500ca6cf9dfc75f4f86a63877f597a26ebfc5e2feb6389465e11380",
  "args": [
    "0xE8cbD28a5cc96ca86513ad8847D344EE634D0A9D",
    "CanonicalTransactionChain"
  ],
  "solcInputHash": "57c40cf5c155d19ac0bd1dac14b9b230",
  "bytecode": "0x60806040523480156200001157600080fd5b5060405162001865380380620018658339818101604052810190620000379190620001df565b81806000806101000a81548173ffffffffffffffffffffffffffffffffffffffff021916908373ffffffffffffffffffffffffffffffffffffffff160217905550508060019080519060200190620000919291906200009a565b50505062000417565b828054620000a8906200030e565b90600052602060002090601f016020900481019282620000cc576000855562000118565b82601f10620000e757805160ff191683800117855562000118565b8280016001018555821562000118579182015b8281111562000117578251825591602001919060010190620000fa565b5b5090506200012791906200012b565b5090565b5b80821115620001465760008160009055506001016200012c565b5090565b6000620001616200015b846200026e565b62000245565b90508281526020810184848401111562000180576200017f620003dd565b5b6200018d848285620002d8565b509392505050565b600081519050620001a681620003fd565b92915050565b600082601f830112620001c457620001c3620003d8565b5b8151620001d68482602086016200014a565b91505092915050565b60008060408385031215620001f957620001f8620003e7565b5b6000620002098582860162000195565b925050602083015167ffffffffffffffff8111156200022d576200022c620003e2565b5b6200023b85828601620001ac565b9150509250929050565b60006200025162000264565b90506200025f828262000344565b919050565b6000604051905090565b600067ffffffffffffffff8211156200028c576200028b620003a9565b5b6200029782620003ec565b9050602081019050919050565b6000620002b182620002b8565b9050919050565b600073ffffffffffffffffffffffffffffffffffffffff82169050919050565b60005b83811015620002f8578082015181840152602081019050620002db565b8381111562000308576000848401525b50505050565b600060028204905060018216806200032757607f821691505b602082108114156200033e576200033d6200037a565b5b50919050565b6200034f82620003ec565b810181811067ffffffffffffffff82111715620003715762000370620003a9565b5b80604052505050565b7f4e487b7100000000000000000000000000000000000000000000000000000000600052602260045260246000fd5b7f4e487b7100000000000000000000000000000000000000000000000000000000600052604160045260246000fd5b600080fd5b600080fd5b600080fd5b600080fd5b6000601f19601f8301169050919050565b6200040881620002a4565b81146200041457600080fd5b50565b61143e80620004276000396000f3fe608060405234801561001057600080fd5b50600436106100a95760003560e01c8063461a447811610071578063461a44781461013e5780634651d91e1461016e5780638da5cb5b1461018a5780639507d39a146101a8578063b298e36b146101d8578063ccf8f969146101f4576100a9565b8063167fd681146100ae5780631f7b6d32146100ca5780632015276c146100e857806329061de214610104578063299ca47814610120575b600080fd5b6100c860048036038101906100c39190610e91565b610212565b005b6100d261032c565b6040516100df9190611069565b60405180910390f35b61010260048036038101906100fd9190610ddb565b610344565b005b61011e60048036038101906101199190610d81565b61045e565b005b610128610575565b6040516101359190610fec565b60405180910390f35b61015860048036038101906101539190610e1b565b610599565b6040516101659190610f9b565b60405180910390f35b61018860048036038101906101839190610e64565b61064c565b005b610192610763565b60405161019f9190611007565b60405180910390f35b6101c260048036038101906101bd9190610e64565b6107f1565b6040516101cf9190610fd1565b60405180910390f35b6101f260048036038101906101ed9190610dae565b610815565b005b6101fc61092c565b6040516102099190610fb6565b60405180910390f35b6102a560018054610222906111f1565b80601f016020809104026020016040519081016040528092919081815260200182805461024e906111f1565b801561029b5780601f106102705761010080835404028352916020019161029b565b820191906000526020600020905b81548152906001019060200180831161027e57829003601f168201915b5050505050610599565b73ffffffffffffffffffffffffffffffffffffffff163373ffffffffffffffffffffffffffffffffffffffff1614610312576040517f08c379a000000000000000000000000000000000000000000000000000000000815260040161030990611029565b60405180910390fd5b6103288282600261093d9092919063ffffffff16565b5050565b600061033860026109ed565b64ffffffffff16905090565b6103d760018054610354906111f1565b80601f0160208091040260200160405190810160405280929190818152602001828054610380906111f1565b80156103cd5780601f106103a2576101008083540402835291602001916103cd565b820191906000526020600020905b8154815290600101906020018083116103b057829003601f168201915b5050505050610599565b73ffffffffffffffffffffffffffffffffffffffff163373ffffffffffffffffffffffffffffffffffffffff1614610444576040517f08c379a000000000000000000000000000000000000000000000000000000000815260040161043b90611029565b60405180910390fd5b61045a82826002610a089092919063ffffffff16565b5050565b6104f16001805461046e906111f1565b80601f016020809104026020016040519081016040528092919081815260200182805461049a906111f1565b80156104e75780601f106104bc576101008083540402835291602001916104e7565b820191906000526020600020905b8154815290600101906020018083116104ca57829003601f168201915b5050505050610599565b73ffffffffffffffffffffffffffffffffffffffff163373ffffffffffffffffffffffffffffffffffffffff161461055e576040517f08c379a000000000000000000000000000000000000000000000000000000000815260040161055590611029565b60405180910390fd5b610572816002610a9390919063ffffffff16565b50565b60008054906101000a900473ffffffffffffffffffffffffffffffffffffffff1681565b60008060009054906101000a900473ffffffffffffffffffffffffffffffffffffffff1673ffffffffffffffffffffffffffffffffffffffff1663bf40fac1836040518263ffffffff1660e01b81526004016105f59190611007565b60206040518083038186803b15801561060d57600080fd5b505afa158015610621573d6000803e3d6000fd5b505050506040513d601f19601f820116820180604052508101906106459190610d54565b9050919050565b6106df6001805461065c906111f1565b80601f0160208091040260200160405190810160405280929190818152602001828054610688906111f1565b80156106d55780601f106106aa576101008083540402835291602001916106d5565b820191906000526020600020905b8154815290600101906020018083116106b857829003601f168201915b5050505050610599565b73ffffffffffffffffffffffffffffffffffffffff163373ffffffffffffffffffffffffffffffffffffffff161461074c576040517f08c379a000000000000000000000000000000000000000000000000000000000815260040161074390611029565b60405180910390fd5b610760816002610ad490919063ffffffff16565b50565b60018054610770906111f1565b80601f016020809104026020016040519081016040528092919081815260200182805461079c906111f1565b80156107e95780601f106107be576101008083540402835291602001916107e9565b820191906000526020600020905b8154815290600101906020018083116107cc57829003601f168201915b505050505081565b600061080e8264ffffffffff166002610aff90919063ffffffff16565b9050919050565b6108a860018054610825906111f1565b80601f0160208091040260200160405190810160405280929190818152602001828054610851906111f1565b801561089e5780601f106108735761010080835404028352916020019161089e565b820191906000526020600020905b81548152906001019060200180831161088157829003601f168201915b5050505050610599565b73ffffffffffffffffffffffffffffffffffffffff163373ffffffffffffffffffffffffffffffffffffffff1614610915576040517f08c379a000000000000000000000000000000000000000000000000000000000815260040161090c90611029565b60405180910390fd5b610929816002610b7990919063ffffffff16565b50565b60006109386002610ba4565b905090565b600061094884610bbf565b9050806000015164ffffffffff168364ffffffffff161061099e576040517f08c379a000000000000000000000000000000000000000000000000000000000815260040161099590611049565b60405180910390fd5b82816000019064ffffffffff16908164ffffffffff168152505081816020019064ffffffffff1916908164ffffffffff1916815250506109e78185610c3090919063ffffffff16565b50505050565b6000806109f983610bbf565b90508060000151915050919050565b6000610a1384610bbf565b905082846001016000836000015164ffffffffff16815260200190815260200160002081905550806000018051809190610a4c90611254565b64ffffffffff1664ffffffffff168152505081816020019064ffffffffff1916908164ffffffffff191681525050610a8d8185610c3090919063ffffffff16565b50505050565b6000610a9e83610bbf565b905081816020019064ffffffffff1916908164ffffffffff191681525050610acf8184610c3090919063ffffffff16565b505050565b6000610adf83610bbf565b9050610afa8282602001518561093d9092919063ffffffff16565b505050565b600080610b0b84610bbf565b9050806000015164ffffffffff168310610b5a576040517f08c379a0000000000000000000000000000000000000000000000000000000008152600401610b5190611049565b60405180910390fd5b8360010160008481526020019081526020016000205491505092915050565b6000610b8483610bbf565b9050610b9f82826020015185610a089092919063ffffffff16565b505050565b600080610bb083610bbf565b90508060200151915050919050565b610bc7610c67565b60008260000154905060008064ffffffffff831691507fffffffffffffffffffffffffffffffffffffffffffffffffffffff00000000008316905060405180604001604052808364ffffffffff1681526020018264ffffffffff19168152509350505050919050565b60008082600001519050600083602001519050819250808317925082856000015414610c60578285600001819055505b5050505050565b6040518060400160405280600064ffffffffff168152602001600064ffffffffff191681525090565b6000610ca3610c9e846110a9565b611084565b905082815260208101848484011115610cbf57610cbe611314565b5b610cca8482856111af565b509392505050565b600081519050610ce1816113ac565b92915050565b600081359050610cf6816113c3565b92915050565b600081359050610d0b816113da565b92915050565b600082601f830112610d2657610d2561130f565b5b8135610d36848260208601610c90565b91505092915050565b600081359050610d4e816113f1565b92915050565b600060208284031215610d6a57610d6961131e565b5b6000610d7884828501610cd2565b91505092915050565b600060208284031215610d9757610d9661131e565b5b6000610da584828501610ce7565b91505092915050565b600060208284031215610dc457610dc361131e565b5b6000610dd284828501610cfc565b91505092915050565b60008060408385031215610df257610df161131e565b5b6000610e0085828601610cfc565b9250506020610e1185828601610ce7565b9150509250929050565b600060208284031215610e3157610e3061131e565b5b600082013567ffffffffffffffff811115610e4f57610e4e611319565b5b610e5b84828501610d11565b91505092915050565b600060208284031215610e7a57610e7961131e565b5b6000610e8884828501610d3f565b91505092915050565b60008060408385031215610ea857610ea761131e565b5b6000610eb685828601610d3f565b9250506020610ec785828601610ce7565b9150509250929050565b610eda816110f6565b82525050565b610ee981611108565b82525050565b610ef881611134565b82525050565b610f0781611179565b82525050565b6000610f18826110da565b610f2281856110e5565b9350610f328185602086016111be565b610f3b81611323565b840191505092915050565b6000610f536040836110e5565b9150610f5e82611334565b604082019050919050565b6000610f766014836110e5565b9150610f8182611383565b602082019050919050565b610f958161115e565b82525050565b6000602082019050610fb06000830184610ed1565b92915050565b6000602082019050610fcb6000830184610ee0565b92915050565b6000602082019050610fe66000830184610eef565b92915050565b60006020820190506110016000830184610efe565b92915050565b600060208201905081810360008301526110218184610f0d565b905092915050565b6000602082019050818103600083015261104281610f46565b9050919050565b6000602082019050818103600083015261106281610f69565b9050919050565b600060208201905061107e6000830184610f8c565b92915050565b600061108e61109f565b905061109a8282611223565b919050565b6000604051905090565b600067ffffffffffffffff8211156110c4576110c36112e0565b5b6110cd82611323565b9050602081019050919050565b600081519050919050565b600082825260208201905092915050565b60006111018261113e565b9050919050565b60007fffffffffffffffffffffffffffffffffffffffffffffffffffffff000000000082169050919050565b6000819050919050565b600073ffffffffffffffffffffffffffffffffffffffff82169050919050565b6000819050919050565b600064ffffffffff82169050919050565b60006111848261118b565b9050919050565b60006111968261119d565b9050919050565b60006111a88261113e565b9050919050565b82818337600083830152505050565b60005b838110156111dc5780820151818401526020810190506111c1565b838111156111eb576000848401525b50505050565b6000600282049050600182168061120957607f821691505b6020821081141561121d5761121c6112b1565b5b50919050565b61122c82611323565b810181811067ffffffffffffffff8211171561124b5761124a6112e0565b5b80604052505050565b600061125f82611168565b915064ffffffffff82141561127757611276611282565b5b600182019050919050565b7f4e487b7100000000000000000000000000000000000000000000000000000000600052601160045260246000fd5b7f4e487b7100000000000000000000000000000000000000000000000000000000600052602260045260246000fd5b7f4e487b7100000000000000000000000000000000000000000000000000000000600052604160045260246000fd5b600080fd5b600080fd5b600080fd5b600080fd5b6000601f19601f8301169050919050565b7f436861696e53746f72616765436f6e7461696e65723a2046756e6374696f6e2060008201527f63616e206f6e6c792062652063616c6c656420627920746865206f776e65722e602082015250565b7f496e646578206f7574206f6620626f756e64732e000000000000000000000000600082015250565b6113b5816110f6565b81146113c057600080fd5b50565b6113cc81611108565b81146113d757600080fd5b50565b6113e381611134565b81146113ee57600080fd5b50565b6113fa8161115e565b811461140557600080fd5b5056fea26469706673582212202bdebcbb8e8a87e95c6eaaaf73c165b22c94783d468d6222d05af21e8676611164736f6c63430008070033",
  "devdoc": {
    "details": "The Chain Storage Container provides its owner contract with read, write and delete functionality. This provides gas efficiency gains by enabling it to overwrite storage slots which can no longer be used in a fraud proof due to the fraud window having passed, and the associated chain state or transactions being finalized. Three distinct Chain Storage Containers will be deployed on Layer 1: 1. Stores transaction batches for the Canonical Transaction Chain 2. Stores queued transactions for the Canonical Transaction Chain 3. Stores chain state batches for the State Commitment Chain Runtime target: EVM",
    "kind": "dev",
    "methods": {
      "constructor": {
        "params": {
          "_libAddressManager": "Address of the Address Manager.",
          "_owner": "Name of the contract that owns this container (will be resolved later)."
        }
      },
      "deleteElementsAfterInclusive(uint256)": {
        "params": {
          "_index": "Object index to delete from."
        }
      },
      "deleteElementsAfterInclusive(uint256,bytes27)": {
        "params": {
          "_globalMetadata": "New global metadata for the container.",
          "_index": "Object index to delete from."
        }
      },
      "get(uint256)": {
        "params": {
          "_index": "Index of the particular object to access."
        },
        "returns": {
          "_0": "32 byte object value."
        }
      },
      "getGlobalMetadata()": {
        "returns": {
          "_0": "Container global metadata field."
        }
      },
      "length()": {
        "returns": {
          "_0": "Number of objects in the container."
        }
      },
      "push(bytes32)": {
        "params": {
          "_object": "A 32 byte value to insert into the container."
        }
      },
      "push(bytes32,bytes27)": {
        "params": {
          "_globalMetadata": "New global metadata for the container.",
          "_object": "A 32 byte value to insert into the container."
        }
      },
      "resolve(string)": {
        "params": {
          "_name": "Name to resolve an address for."
        },
        "returns": {
          "_0": "Address associated with the given name."
        }
      },
      "setGlobalMetadata(bytes27)": {
        "params": {
          "_globalMetadata": "New global metadata to set."
        }
      }
    },
    "title": "ChainStorageContainer",
    "version": 1
  },
  "userdoc": {
    "kind": "user",
    "methods": {
      "deleteElementsAfterInclusive(uint256)": {
        "notice": "Removes all objects after and including a given index."
      },
      "deleteElementsAfterInclusive(uint256,bytes27)": {
        "notice": "Removes all objects after and including a given index. Also allows setting the global metadata field."
      },
      "get(uint256)": {
        "notice": "Retrieves an object from the container."
      },
      "getGlobalMetadata()": {
        "notice": "Retrieves the container's global metadata field."
      },
      "length()": {
        "notice": "Retrieves the number of objects stored in the container."
      },
      "push(bytes32)": {
        "notice": "Pushes an object into the container."
      },
      "push(bytes32,bytes27)": {
        "notice": "Pushes an object into the container. Function allows setting the global metadata since we'll need to touch the \"length\" storage slot anyway, which also contains the global metadata (it's an optimization)."
      },
      "resolve(string)": {
        "notice": "Resolves the address associated with a given name."
      },
      "setGlobalMetadata(bytes27)": {
        "notice": "Sets the container's global metadata field. We're using `bytes27` here because we use five bytes to maintain the length of the underlying data structure, meaning we have an extra 27 bytes to store arbitrary data."
      }
    },
    "version": 1
  },
  "storageLayout": {
    "storage": [
      {
        "astId": 7832,
        "contract": "contracts/L1/rollup/ChainStorageContainer.sol:ChainStorageContainer",
        "label": "libAddressManager",
        "offset": 0,
        "slot": "0",
        "type": "t_contract(Lib_AddressManager)7824"
      },
      {
        "astId": 4630,
        "contract": "contracts/L1/rollup/ChainStorageContainer.sol:ChainStorageContainer",
        "label": "owner",
        "offset": 0,
        "slot": "1",
        "type": "t_string_storage"
      },
      {
        "astId": 4633,
        "contract": "contracts/L1/rollup/ChainStorageContainer.sol:ChainStorageContainer",
        "label": "buffer",
        "offset": 0,
        "slot": "2",
        "type": "t_struct(Buffer)11585_storage"
      }
    ],
    "types": {
      "t_bytes32": {
        "encoding": "inplace",
        "label": "bytes32",
        "numberOfBytes": "32"
      },
      "t_contract(Lib_AddressManager)7824": {
        "encoding": "inplace",
        "label": "contract Lib_AddressManager",
        "numberOfBytes": "20"
      },
      "t_mapping(t_uint256,t_bytes32)": {
        "encoding": "mapping",
        "key": "t_uint256",
        "label": "mapping(uint256 => bytes32)",
        "numberOfBytes": "32",
        "value": "t_bytes32"
      },
      "t_string_storage": {
        "encoding": "bytes",
        "label": "string",
        "numberOfBytes": "32"
      },
      "t_struct(Buffer)11585_storage": {
        "encoding": "inplace",
        "label": "struct Lib_Buffer.Buffer",
        "members": [
          {
            "astId": 11580,
            "contract": "contracts/L1/rollup/ChainStorageContainer.sol:ChainStorageContainer",
            "label": "context",
            "offset": 0,
            "slot": "0",
            "type": "t_bytes32"
          },
          {
            "astId": 11584,
            "contract": "contracts/L1/rollup/ChainStorageContainer.sol:ChainStorageContainer",
            "label": "buf",
            "offset": 0,
            "slot": "1",
            "type": "t_mapping(t_uint256,t_bytes32)"
          }
        ],
        "numberOfBytes": "64"
      },
      "t_uint256": {
        "encoding": "inplace",
        "label": "uint256",
        "numberOfBytes": "32"
      }
    }
  }
}