{
  "address": "0x9Fb539De9f6AE2F7C2DC434Cd9dD145Ed1E50C7A",
  "abi": [
    {
      "inputs": [],
      "stateMutability": "nonpayable",
      "type": "constructor"
    },
    {
      "anonymous": false,
      "inputs": [
        {
          "indexed": true,
          "internalType": "bytes32",
          "name": "msgHash",
          "type": "bytes32"
        }
      ],
      "name": "FailedRelayedMessage",
      "type": "event"
    },
    {
      "anonymous": false,
      "inputs": [
        {
          "indexed": true,
          "internalType": "bytes32",
          "name": "_xDomainCalldataHash",
          "type": "bytes32"
        }
      ],
      "name": "MessageAllowed",
      "type": "event"
    },
    {
      "anonymous": false,
      "inputs": [
        {
          "indexed": true,
          "internalType": "bytes32",
          "name": "_xDomainCalldataHash",
          "type": "bytes32"
        }
      ],
      "name": "MessageBlocked",
      "type": "event"
    },
    {
      "anonymous": false,
      "inputs": [
        {
          "indexed": true,
          "internalType": "address",
          "name": "previousOwner",
          "type": "address"
        },
        {
          "indexed": true,
          "internalType": "address",
          "name": "newOwner",
          "type": "address"
        }
      ],
      "name": "OwnershipTransferred",
      "type": "event"
    },
    {
      "anonymous": false,
      "inputs": [
        {
          "indexed": false,
          "internalType": "address",
          "name": "account",
          "type": "address"
        }
      ],
      "name": "Paused",
      "type": "event"
    },
    {
      "anonymous": false,
      "inputs": [
        {
          "indexed": true,
          "internalType": "bytes32",
          "name": "msgHash",
          "type": "bytes32"
        }
      ],
      "name": "RelayedMessage",
      "type": "event"
    },
    {
      "anonymous": false,
      "inputs": [
        {
          "indexed": true,
          "internalType": "address",
          "name": "target",
          "type": "address"
        },
        {
          "indexed": false,
          "internalType": "address",
          "name": "sender",
          "type": "address"
        },
        {
          "indexed": false,
          "internalType": "bytes",
          "name": "message",
          "type": "bytes"
        },
        {
          "indexed": false,
          "internalType": "uint256",
          "name": "messageNonce",
          "type": "uint256"
        },
        {
          "indexed": false,
          "internalType": "uint256",
          "name": "gasLimit",
          "type": "uint256"
        }
      ],
      "name": "SentMessage",
      "type": "event"
    },
    {
      "anonymous": false,
      "inputs": [
        {
          "indexed": false,
          "internalType": "address",
          "name": "account",
          "type": "address"
        }
      ],
      "name": "Unpaused",
      "type": "event"
    },
    {
      "inputs": [
        {
          "internalType": "bytes32",
          "name": "_xDomainCalldataHash",
          "type": "bytes32"
        }
      ],
      "name": "allowMessage",
      "outputs": [],
      "stateMutability": "nonpayable",
      "type": "function"
    },
    {
      "inputs": [
        {
          "internalType": "bytes32",
          "name": "_xDomainCalldataHash",
          "type": "bytes32"
        }
      ],
      "name": "blockMessage",
      "outputs": [],
      "stateMutability": "nonpayable",
      "type": "function"
    },
    {
      "inputs": [
        {
          "internalType": "bytes32",
          "name": "",
          "type": "bytes32"
        }
      ],
      "name": "blockedMessages",
      "outputs": [
        {
          "internalType": "bool",
          "name": "",
          "type": "bool"
        }
      ],
      "stateMutability": "view",
      "type": "function"
    },
    {
      "inputs": [
        {
          "internalType": "address",
          "name": "_libAddressManager",
          "type": "address"
        }
      ],
      "name": "initialize",
      "outputs": [],
      "stateMutability": "nonpayable",
      "type": "function"
    },
    {
      "inputs": [],
      "name": "libAddressManager",
      "outputs": [
        {
          "internalType": "contract Lib_AddressManager",
          "name": "",
          "type": "address"
        }
      ],
      "stateMutability": "view",
      "type": "function"
    },
    {
      "inputs": [],
      "name": "owner",
      "outputs": [
        {
          "internalType": "address",
          "name": "",
          "type": "address"
        }
      ],
      "stateMutability": "view",
      "type": "function"
    },
    {
      "inputs": [],
      "name": "pause",
      "outputs": [],
      "stateMutability": "nonpayable",
      "type": "function"
    },
    {
      "inputs": [],
      "name": "paused",
      "outputs": [
        {
          "internalType": "bool",
          "name": "",
          "type": "bool"
        }
      ],
      "stateMutability": "view",
      "type": "function"
    },
    {
      "inputs": [
        {
          "internalType": "address",
          "name": "_target",
          "type": "address"
        },
        {
          "internalType": "address",
          "name": "_sender",
          "type": "address"
        },
        {
          "internalType": "bytes",
          "name": "_message",
          "type": "bytes"
        },
        {
          "internalType": "uint256",
          "name": "_messageNonce",
          "type": "uint256"
        },
        {
          "components": [
            {
              "internalType": "bytes32",
              "name": "stateRoot",
              "type": "bytes32"
            },
            {
              "components": [
                {
                  "internalType": "uint256",
                  "name": "batchIndex",
                  "type": "uint256"
                },
                {
                  "internalType": "bytes32",
                  "name": "batchRoot",
                  "type": "bytes32"
                },
                {
                  "internalType": "uint256",
                  "name": "batchSize",
                  "type": "uint256"
                },
                {
                  "internalType": "uint256",
                  "name": "prevTotalElements",
                  "type": "uint256"
                },
                {
                  "internalType": "bytes",
                  "name": "extraData",
                  "type": "bytes"
                }
              ],
              "internalType": "struct Lib_OVMCodec.ChainBatchHeader",
              "name": "stateRootBatchHeader",
              "type": "tuple"
            },
            {
              "components": [
                {
                  "internalType": "uint256",
                  "name": "index",
                  "type": "uint256"
                },
                {
                  "internalType": "bytes32[]",
                  "name": "siblings",
                  "type": "bytes32[]"
                }
              ],
              "internalType": "struct Lib_OVMCodec.ChainInclusionProof",
              "name": "stateRootProof",
              "type": "tuple"
            },
            {
              "internalType": "bytes",
              "name": "stateTrieWitness",
              "type": "bytes"
            },
            {
              "internalType": "bytes",
              "name": "storageTrieWitness",
              "type": "bytes"
            }
          ],
          "internalType": "struct IL1CrossDomainMessenger.L2MessageInclusionProof",
          "name": "_proof",
          "type": "tuple"
        }
      ],
      "name": "relayMessage",
      "outputs": [],
      "stateMutability": "nonpayable",
      "type": "function"
    },
    {
      "inputs": [
        {
          "internalType": "bytes32",
          "name": "",
          "type": "bytes32"
        }
      ],
      "name": "relayedMessages",
      "outputs": [
        {
          "internalType": "bool",
          "name": "",
          "type": "bool"
        }
      ],
      "stateMutability": "view",
      "type": "function"
    },
    {
      "inputs": [],
      "name": "renounceOwnership",
      "outputs": [],
      "stateMutability": "nonpayable",
      "type": "function"
    },
    {
      "inputs": [
        {
          "internalType": "address",
          "name": "_target",
          "type": "address"
        },
        {
          "internalType": "address",
          "name": "_sender",
          "type": "address"
        },
        {
          "internalType": "bytes",
          "name": "_message",
          "type": "bytes"
        },
        {
          "internalType": "uint256",
          "name": "_queueIndex",
          "type": "uint256"
        },
        {
          "internalType": "uint32",
          "name": "_gasLimit",
          "type": "uint32"
        }
      ],
      "name": "replayMessage",
      "outputs": [],
      "stateMutability": "nonpayable",
      "type": "function"
    },
    {
      "inputs": [
        {
          "internalType": "string",
          "name": "_name",
          "type": "string"
        }
      ],
      "name": "resolve",
      "outputs": [
        {
          "internalType": "address",
          "name": "",
          "type": "address"
        }
      ],
      "stateMutability": "view",
      "type": "function"
    },
    {
      "inputs": [
        {
          "internalType": "address",
          "name": "_target",
          "type": "address"
        },
        {
          "internalType": "bytes",
          "name": "_message",
          "type": "bytes"
        },
        {
          "internalType": "uint32",
          "name": "_gasLimit",
          "type": "uint32"
        }
      ],
      "name": "sendMessage",
      "outputs": [],
      "stateMutability": "nonpayable",
      "type": "function"
    },
    {
      "inputs": [
        {
          "internalType": "bytes32",
          "name": "",
          "type": "bytes32"
        }
      ],
      "name": "successfulMessages",
      "outputs": [
        {
          "internalType": "bool",
          "name": "",
          "type": "bool"
        }
      ],
      "stateMutability": "view",
      "type": "function"
    },
    {
      "inputs": [
        {
          "internalType": "address",
          "name": "newOwner",
          "type": "address"
        }
      ],
      "name": "transferOwnership",
      "outputs": [],
      "stateMutability": "nonpayable",
      "type": "function"
    },
    {
      "inputs": [],
      "name": "xDomainMessageSender",
      "outputs": [
        {
          "internalType": "address",
          "name": "",
          "type": "address"
        }
      ],
      "stateMutability": "view",
      "type": "function"
    }
  ],
  "transactionHash": "0xe7e895f18d5188e9ab968d2f9e043296e1163bae0a96d13b2c7d942957884fdf",
  "args": [],
  "solcInputHash": "57c40cf5c155d19ac0bd1dac14b9b230",
  "bytecode": "0x608060405261dead60cc60006101000a81548173ffffffffffffffffffffffffffffffffffffffff021916908373ffffffffffffffffffffffffffffffffffffffff16021790555034801561005357600080fd5b506000806000806101000a81548173ffffffffffffffffffffffffffffffffffffffff021916908373ffffffffffffffffffffffffffffffffffffffff1602179055505061564d80620000a76000396000f3fe608060405234801561001057600080fd5b506004361061010b5760003560e01c8063715018a6116100a2578063b1b1b20911610071578063b1b1b2091461026c578063c4d66de81461029c578063c6b94ab0146102b8578063d7fd19dd146102e8578063f2fde38b146103045761010b565b8063715018a61461021e57806381ada46c146102285780638456cb59146102445780638da5cb5b1461024e5761010b565b8063461a4478116100de578063461a4478146101965780635c975abb146101c65780636e296e45146101e4578063706ceab6146102025761010b565b80630ecf2eea1461011057806321d800ec1461012c578063299ca4781461015c5780633dbb202b1461017a575b600080fd5b61012a600480360381019061012591906138e0565b610320565b005b610146600480360381019061014191906138e0565b6103f8565b6040516101539190614389565b60405180910390f35b610164610418565b60405161017191906143e9565b60405180910390f35b610194600480360381019061018f9190613844565b61043c565b005b6101b060048036038101906101ab919061393a565b610584565b6040516101bd919061424c565b60405180910390f35b6101ce610637565b6040516101db9190614389565b60405180910390f35b6101ec61064e565b6040516101f9919061424c565b60405180910390f35b61021c600480360381019061021791906137ad565b61070b565b005b610226610891565b005b610242600480360381019061023d91906138e0565b610919565b005b61024c6109f1565b005b610256610a77565b604051610263919061424c565b60405180910390f35b610286600480360381019061028191906138e0565b610aa1565b6040516102939190614389565b60405180910390f35b6102b660048036038101906102b191906136a0565b610ac1565b005b6102d260048036038101906102cd91906138e0565b610cd0565b6040516102df9190614389565b60405180910390f35b61030260048036038101906102fd91906136fa565b610cf0565b005b61031e600480360381019061031991906136a0565b61124a565b005b610328611342565b73ffffffffffffffffffffffffffffffffffffffff16610346610a77565b73ffffffffffffffffffffffffffffffffffffffff161461039c576040517f08c379a0000000000000000000000000000000000000000000000000000000008152600401610393906146c6565b60405180910390fd5b600160c9600083815260200190815260200160002060006101000a81548160ff021916908315150217905550807ff52508d5339edf0d7e5060a416df98db067af561bdc60872d29c0439eaa13a0260405160405180910390a250565b60ca6020528060005260406000206000915054906101000a900460ff1681565b60008054906101000a900473ffffffffffffffffffffffffffffffffffffffff1681565b600061047c6040518060400160405280601981526020017f43616e6f6e6963616c5472616e73616374696f6e436861696e00000000000000815250610584565b905060008173ffffffffffffffffffffffffffffffffffffffff1663b8f770056040518163ffffffff1660e01b815260040160206040518083038186803b1580156104c657600080fd5b505afa1580156104da573d6000803e3d6000fd5b505050506040513d601f19601f820116820180604052508101906104fe91906139b0565b905060006105158633878564ffffffffff1661134a565b905061052883828663ffffffff166113ea565b8573ffffffffffffffffffffffffffffffffffffffff167fcb0f7ffd78f9aee47a248fae8db181db6eee833039123e026dcbff529522e52a3387858860405161057494939291906142ff565b60405180910390a2505050505050565b60008060009054906101000a900473ffffffffffffffffffffffffffffffffffffffff1673ffffffffffffffffffffffffffffffffffffffff1663bf40fac1836040518263ffffffff1660e01b81526004016105e09190614404565b60206040518083038186803b1580156105f857600080fd5b505afa15801561060c573d6000803e3d6000fd5b505050506040513d601f19601f8201168201806040525081019061063091906136cd565b9050919050565b6000606560009054906101000a900460ff16905090565b600061dead73ffffffffffffffffffffffffffffffffffffffff1660cc60009054906101000a900473ffffffffffffffffffffffffffffffffffffffff1673ffffffffffffffffffffffffffffffffffffffff1614156106e3576040517f08c379a00000000000000000000000000000000000000000000000000000000081526004016106da90614466565b60405180910390fd5b60cc60009054906101000a900473ffffffffffffffffffffffffffffffffffffffff16905090565b600061074b6040518060400160405280601981526020017f43616e6f6e6963616c5472616e73616374696f6e436861696e00000000000000815250610584565b905060008173ffffffffffffffffffffffffffffffffffffffff16632a7f18be856040518263ffffffff1660e01b81526004016107889190614868565b60606040518083038186803b1580156107a057600080fd5b505afa1580156107b4573d6000803e3d6000fd5b505050506040513d601f19601f820116820180604052508101906107d89190613983565b9050600030734200000000000000000000000000000000000007858860405160200161080794939291906142b3565b60405160208183030381529060405280519060200120905081600001518114610865576040517f08c379a000000000000000000000000000000000000000000000000000000000815260040161085c90614826565b60405180910390fd5b60006108738989898961134a565b905061088684828763ffffffff166113ea565b505050505050505050565b610899611342565b73ffffffffffffffffffffffffffffffffffffffff166108b7610a77565b73ffffffffffffffffffffffffffffffffffffffff161461090d576040517f08c379a0000000000000000000000000000000000000000000000000000000008152600401610904906146c6565b60405180910390fd5b6109176000611472565b565b610921611342565b73ffffffffffffffffffffffffffffffffffffffff1661093f610a77565b73ffffffffffffffffffffffffffffffffffffffff1614610995576040517f08c379a000000000000000000000000000000000000000000000000000000000815260040161098c906146c6565b60405180910390fd5b600060c9600083815260200190815260200160002060006101000a81548160ff021916908315150217905550807f52c8a2680a9f4cc0ad0bf88f32096eadbebf0646ea611d93a0ce6a29a024040560405160405180910390a250565b6109f9611342565b73ffffffffffffffffffffffffffffffffffffffff16610a17610a77565b73ffffffffffffffffffffffffffffffffffffffff1614610a6d576040517f08c379a0000000000000000000000000000000000000000000000000000000008152600401610a64906146c6565b60405180910390fd5b610a75611538565b565b6000603360009054906101000a900473ffffffffffffffffffffffffffffffffffffffff16905090565b60cb6020528060005260406000206000915054906101000a900460ff1681565b600060159054906101000a900460ff1680610ae95750600060149054906101000a900460ff16155b610b28576040517f08c379a0000000000000000000000000000000000000000000000000000000008152600401610b1f90614606565b60405180910390fd5b60008060159054906101000a900460ff161590508015610b79576001600060156101000a81548160ff0219169083151502179055506001600060146101000a81548160ff0219169083151502179055505b600073ffffffffffffffffffffffffffffffffffffffff1660008054906101000a900473ffffffffffffffffffffffffffffffffffffffff1673ffffffffffffffffffffffffffffffffffffffff1614610c08576040517f08c379a0000000000000000000000000000000000000000000000000000000008152600401610bff90614726565b60405180910390fd5b816000806101000a81548173ffffffffffffffffffffffffffffffffffffffff021916908373ffffffffffffffffffffffffffffffffffffffff16021790555061dead60cc60006101000a81548173ffffffffffffffffffffffffffffffffffffffff021916908373ffffffffffffffffffffffffffffffffffffffff160217905550610c936115db565b610c9b6116b7565b610ca36117a3565b610cab61189a565b8015610ccc5760008060156101000a81548160ff0219169083151502179055505b5050565b60c96020528060005260406000206000915054906101000a900460ff1681565b60026097541415610d36576040517f08c379a0000000000000000000000000000000000000000000000000000000008152600401610d2d906147a6565b60405180910390fd5b60026097819055506000610d7e6040518060400160405280601481526020017f4f564d5f4c324d65737361676552656c61796572000000000000000000000000815250610584565b9050600073ffffffffffffffffffffffffffffffffffffffff168173ffffffffffffffffffffffffffffffffffffffff1614610e23578073ffffffffffffffffffffffffffffffffffffffff163373ffffffffffffffffffffffffffffffffffffffff1614610e22576040517f08c379a0000000000000000000000000000000000000000000000000000000008152600401610e1990614626565b60405180910390fd5b5b610e2b610637565b15610e6b576040517f08c379a0000000000000000000000000000000000000000000000000000000008152600401610e62906145c6565b60405180910390fd5b6000610e798787878761134a565b905060011515610e89828561197e565b151514610ecb576040517f08c379a0000000000000000000000000000000000000000000000000000000008152600401610ec290614646565b60405180910390fd5b6000818051906020012090506000151560cb600083815260200190815260200160002060009054906101000a900460ff16151514610f3e576040517f08c379a0000000000000000000000000000000000000000000000000000000008152600401610f35906144e6565b60405180910390fd5b6000151560c9600083815260200190815260200160002060009054906101000a900460ff16151514610fa5576040517f08c379a0000000000000000000000000000000000000000000000000000000008152600401610f9c90614586565b60405180910390fd5b610fe36040518060400160405280601981526020017f43616e6f6e6963616c5472616e73616374696f6e436861696e00000000000000815250610584565b73ffffffffffffffffffffffffffffffffffffffff168873ffffffffffffffffffffffffffffffffffffffff161415611051576040517f08c379a0000000000000000000000000000000000000000000000000000000008152600401611048906147c6565b60405180910390fd5b8660cc60006101000a81548173ffffffffffffffffffffffffffffffffffffffff021916908373ffffffffffffffffffffffffffffffffffffffff16021790555060008873ffffffffffffffffffffffffffffffffffffffff16876040516110b991906141b9565b6000604051808303816000865af19150503d80600081146110f6576040519150601f19603f3d011682016040523d82523d6000602084013e6110fb565b606091505b5050905061dead60cc60006101000a81548173ffffffffffffffffffffffffffffffffffffffff021916908373ffffffffffffffffffffffffffffffffffffffff1602179055506001151581151514156111ad57600160cb600084815260200190815260200160002060006101000a81548160ff021916908315150217905550817f4641df4a962071e12719d8c8c8e5ac7fc4d97b927346a3d7a335b1f7517e133c60405160405180910390a26111db565b817f99d0e048484baa1b1540b1367cb128acd7ab2946d1ed91ec10e3c85e4bf51b8f60405160405180910390a25b60008333436040516020016111f2939291906141f8565b604051602081830303815290604052805190602001209050600160ca600083815260200190815260200160002060006101000a81548160ff021916908315150217905550505050505060016097819055505050505050565b611252611342565b73ffffffffffffffffffffffffffffffffffffffff16611270610a77565b73ffffffffffffffffffffffffffffffffffffffff16146112c6576040517f08c379a00000000000000000000000000000000000000000000000000000000081526004016112bd906146c6565b60405180910390fd5b600073ffffffffffffffffffffffffffffffffffffffff168173ffffffffffffffffffffffffffffffffffffffff161415611336576040517f08c379a000000000000000000000000000000000000000000000000000000000815260040161132d906144c6565b60405180910390fd5b61133f81611472565b50565b600033905090565b6060848484846040516024016113639493929190614267565b6040516020818303038152906040527fcbd4ece9000000000000000000000000000000000000000000000000000000007bffffffffffffffffffffffffffffffffffffffffffffffffffffffff19166020820180517bffffffffffffffffffffffffffffffffffffffffffffffffffffffff83818316178352505050509050949350505050565b8273ffffffffffffffffffffffffffffffffffffffff16636fee07e073420000000000000000000000000000000000000783856040518463ffffffff1660e01b815260040161143b9392919061434b565b600060405180830381600087803b15801561145557600080fd5b505af1158015611469573d6000803e3d6000fd5b50505050505050565b6000603360009054906101000a900473ffffffffffffffffffffffffffffffffffffffff16905081603360006101000a81548173ffffffffffffffffffffffffffffffffffffffff021916908373ffffffffffffffffffffffffffffffffffffffff1602179055508173ffffffffffffffffffffffffffffffffffffffff168173ffffffffffffffffffffffffffffffffffffffff167f8be0079c531659141344cd1fd0a4f28419497f9722a3daafe3b4186f6b6457e060405160405180910390a35050565b611540610637565b15611580576040517f08c379a0000000000000000000000000000000000000000000000000000000008152600401611577906145c6565b60405180910390fd5b6001606560006101000a81548160ff0219169083151502179055507f62e78cea01bee320cd4e420270b5ea74000d11b0c9f74754ebdbfc544b05a2586115c4611342565b6040516115d1919061424c565b60405180910390a1565b600060159054906101000a900460ff16806116035750600060149054906101000a900460ff16155b611642576040517f08c379a000000000000000000000000000000000000000000000000000000000815260040161163990614606565b60405180910390fd5b60008060159054906101000a900460ff161590508015611693576001600060156101000a81548160ff0219169083151502179055506001600060146101000a81548160ff0219169083151502179055505b80156116b45760008060156101000a81548160ff0219169083151502179055505b50565b600060159054906101000a900460ff16806116df5750600060149054906101000a900460ff16155b61171e576040517f08c379a000000000000000000000000000000000000000000000000000000000815260040161171590614606565b60405180910390fd5b60008060159054906101000a900460ff16159050801561176f576001600060156101000a81548160ff0219169083151502179055506001600060146101000a81548160ff0219169083151502179055505b61177f61177a611342565b611472565b80156117a05760008060156101000a81548160ff0219169083151502179055505b50565b600060159054906101000a900460ff16806117cb5750600060149054906101000a900460ff16155b61180a576040517f08c379a000000000000000000000000000000000000000000000000000000000815260040161180190614606565b60405180910390fd5b60008060159054906101000a900460ff16159050801561185b576001600060156101000a81548160ff0219169083151502179055506001600060146101000a81548160ff0219169083151502179055505b6000606560006101000a81548160ff02191690831515021790555080156118975760008060156101000a81548160ff0219169083151502179055505b50565b600060159054906101000a900460ff16806118c25750600060149054906101000a900460ff16155b611901576040517f08c379a00000000000000000000000000000000000000000000000000000000081526004016118f890614606565b60405180910390fd5b60008060159054906101000a900460ff161590508015611952576001600060156101000a81548160ff0219169083151502179055506001600060146101000a81548160ff0219169083151502179055505b6001609781905550801561197b5760008060156101000a81548160ff0219169083151502179055505b50565b6000611989826119a3565b801561199b575061199a8383611b23565b5b905092915050565b6000806119e46040518060400160405280601481526020017f5374617465436f6d6d69746d656e74436861696e000000000000000000000000815250610584565b9050600015158173ffffffffffffffffffffffffffffffffffffffff16639418bddd85602001516040518263ffffffff1660e01b8152600401611a279190614846565b60206040518083038186803b158015611a3f57600080fd5b505afa158015611a53573d6000803e3d6000fd5b505050506040513d601f19601f82011682018060405250810190611a7791906138b3565b1515148015611b1b57508073ffffffffffffffffffffffffffffffffffffffff16634d69ee578460000151856020015186604001516040518463ffffffff1660e01b8152600401611aca939291906143a4565b60206040518083038186803b158015611ae257600080fd5b505afa158015611af6573d6000803e3d6000fd5b505050506040513d601f19601f82011682018060405250810190611b1a91906138b3565b5b915050919050565b60008083734200000000000000000000000000000000000007604051602001611b4d9291906141d0565b604051602081830303815290604052805190602001206000604051602001611b7692919061418d565b604051602081830303815290604052805190602001209050600080611bd7734200000000000000000000000000000000000000604051602001611bb99190614157565b60405160208183030381529060405286606001518760000151611c8e565b915091506001151582151514611c22576040517f08c379a0000000000000000000000000000000000000000000000000000000008152600401611c1990614506565b60405180910390fd5b6000611c2d82611cb7565b9050611c8284604051602001611c439190614172565b6040516020818303038152906040526001604051602001611c649190614231565b60405160208183030381529060405288608001518460400151611d81565b94505050505092915050565b600060606000611c9d86611da6565b9050611caa818686611dd6565b9250925050935093915050565b611cbf6131a4565b6000611cca83611eaf565b90506040518060800160405280611cfb83600081518110611cee57611ced614daa565b5b6020026020010151611ec9565b8152602001611d2483600181518110611d1757611d16614daa565b5b6020026020010151611ec9565b8152602001611d4d83600281518110611d4057611d3f614daa565b5b6020026020010151611ede565b8152602001611d7683600381518110611d6957611d68614daa565b5b6020026020010151611ede565b815250915050919050565b600080611d8d86611da6565b9050611d9b81868686611fe0565b915050949350505050565b60608180519060200120604051602001611dc09190614172565b6040516020818303038152906040529050919050565b600060606000611de585612013565b90506000806000611df7848a89612108565b92509250925060008083511490508080611e0e5750815b611e4d576040517f08c379a0000000000000000000000000000000000000000000000000000000008152600401611e4490614486565b60405180910390fd5b600081611e695760405180602001604052806000815250611e99565b611e9886600187611e7a9190614aa4565b81518110611e8b57611e8a614daa565b5b6020026020010151612579565b5b9050818197509750505050505050935093915050565b6060611ec2611ebd836125ba565b6125e8565b9050919050565b6000611ed482611ede565b60001c9050919050565b6000602182600001511115611f28576040517f08c379a0000000000000000000000000000000000000000000000000000000008152600401611f1f906145e6565b60405180910390fd5b6000806000611f36856127df565b92509250925060006001811115611f5057611f4f614d7b565b5b816001811115611f6357611f62614d7b565b5b14611fa3576040517f08c379a0000000000000000000000000000000000000000000000000000000008152600401611f9a906145e6565b60405180910390fd5b6000838660200151611fb591906149c3565b90506000815190506020841015611fd357836020036101000a810490505b8095505050505050919050565b6000806000611ff0878686611dd6565b9150915081801561200757506120068682612af8565b5b92505050949350505050565b6060600061202083611eaf565b90506000815167ffffffffffffffff81111561203f5761203e614dd9565b5b60405190808252806020026020018201604052801561207857816020015b6120656131d2565b81526020019060019003908161205d5790505b50905060005b82518110156120fd5760006120ac84838151811061209f5761209e614daa565b5b6020026020010151612b13565b905060405180604001604052808281526020016120c883611eaf565b8152508383815181106120de576120dd614daa565b5b60200260200101819052505080806120f590614c59565b91505061207e565b508092505050919050565b6000606060008060009050600061211e87612ba9565b905060008690506000806121306131d2565b60005b8c51811015612529578c818151811061214f5761214e614daa565b5b60200260200101519150828461216591906149c3565b935060018761217491906149c3565b965060008414156121d15784826000015180519060200120146121cc576040517f08c379a00000000000000000000000000000000000000000000000000000000081526004016121c3906147e6565b60405180910390fd5b612280565b60208260000151511061223057848260000151805190602001201461222b576040517f08c379a000000000000000000000000000000000000000000000000000000000815260040161222290614426565b60405180910390fd5b61227f565b8461223e8360000151612d4e565b1461227e576040517f08c379a000000000000000000000000000000000000000000000000000000000815260040161227590614766565b60405180910390fd5b5b5b6001601061228e91906149c3565b82602001515114156123095785518414156122a857612529565b60008685815181106122bd576122bc614daa565b5b602001015160f81c60f81b60f81c9050600083602001518260ff16815181106122e9576122e8614daa565b5b602002602001015190506122fc81612d88565b9650600194505050612516565b600282602001515114156124db57600061232283612dc6565b905060008160008151811061233a57612339614daa565b5b602001015160f81c60f81b60f81c905060006002826123599190614cec565b60026123659190614ad8565b90506000612376848360ff16612dff565b905060006123848b8a612dff565b905060006123928383612e40565b9050600260ff168560ff1614806123af5750600360ff168560ff16145b1561240c578083511480156123c45750808251145b156123d857808a6123d591906149c3565b99505b608060f81b7effffffffffffffffffffffffffffffffffffffffffffffffffffffffffffff19169a50505050505050612529565b600060ff168560ff1614806124275750600160ff168560ff16145b156124a0578251811461246857608060f81b7effffffffffffffffffffffffffffffffffffffffffffffffffffffffffffff19169a50505050505050612529565b612490886020015160018151811061248357612482614daa565b5b6020026020010151612d88565b9a50809850505050505050612516565b6040517f08c379a00000000000000000000000000000000000000000000000000000000081526004016124d2906146a6565b60405180910390fd5b6040517f08c379a000000000000000000000000000000000000000000000000000000000815260040161250d90614526565b60405180910390fd5b808061252190614c59565b915050612133565b506000608060f81b7effffffffffffffffffffffffffffffffffffffffffffffffffffffffffffff191685149050866125628786612dff565b829950995099505050505050505093509350939050565b60606125b3826020015160018460200151516125959190614aa4565b815181106125a6576125a5614daa565b5b6020026020010151612b13565b9050919050565b6125c26131ec565b600060208301905060405180604001604052808451815260200182815250915050919050565b60606000806125f6846127df565b925050915060018081111561260e5761260d614d7b565b5b81600181111561262157612620614d7b565b5b14612661576040517f08c379a000000000000000000000000000000000000000000000000000000000815260040161265890614666565b60405180910390fd5b6000602067ffffffffffffffff81111561267e5761267d614dd9565b5b6040519080825280602002602001820160405280156126b757816020015b6126a46131ec565b81526020019060019003908161269c5790505b5090506000808490505b86600001518110156127cf5760208210612710576040517f08c379a000000000000000000000000000000000000000000000000000000000815260040161270790614566565b60405180910390fd5b60008061274e6040518060400160405280858c600001516127319190614aa4565b8152602001858c6020015161274691906149c3565b8152506127df565b50915091506040518060400160405280838361276a91906149c3565b8152602001848b6020015161277f91906149c3565b81525085858151811061279557612794614daa565b5b60200260200101819052506001846127ad91906149c3565b935080826127bb91906149c3565b836127c691906149c3565b925050506126c1565b8183528295505050505050919050565b60008060008084600001511161282a576040517f08c379a0000000000000000000000000000000000000000000000000000000008152600401612821906146e6565b60405180910390fd5b6000846020015190506000815160001a9050607f8111612857576000600160009450945094505050612af1565b60b781116128c957600060808261286e9190614aa4565b9050808760000151116128b6576040517f08c379a00000000000000000000000000000000000000000000000000000000081526004016128ad90614686565b60405180910390fd5b6001816000955095509550505050612af1565b60bf81116129aa57600060b7826128e09190614aa4565b905080876000015111612928576040517f08c379a000000000000000000000000000000000000000000000000000000000815260040161291f90614546565b60405180910390fd5b6000816020036101000a6001850151049050808261294691906149c3565b88600001511161298b576040517f08c379a000000000000000000000000000000000000000000000000000000000815260040161298290614746565b60405180910390fd5b81600161299891906149c3565b81600096509650965050505050612af1565b60f78111612a1c57600060c0826129c19190614aa4565b905080876000015111612a09576040517f08c379a0000000000000000000000000000000000000000000000000000000008152600401612a0090614806565b60405180910390fd5b6001816001955095509550505050612af1565b600060f782612a2b9190614aa4565b905080876000015111612a73576040517f08c379a0000000000000000000000000000000000000000000000000000000008152600401612a6a90614446565b60405180910390fd5b6000816020036101000a60018501510490508082612a9191906149c3565b886000015111612ad6576040517f08c379a0000000000000000000000000000000000000000000000000000000008152600401612acd906144a6565b60405180910390fd5b816001612ae391906149c3565b816001965096509650505050505b9193909250565b60008180519060200120838051906020012014905092915050565b60606000806000612b23856127df565b92509250925060006001811115612b3d57612b3c614d7b565b5b816001811115612b5057612b4f614d7b565b5b14612b90576040517f08c379a0000000000000000000000000000000000000000000000000000000008152600401612b8790614786565b60405180910390fd5b612b9f85602001518484612f03565b9350505050919050565b6060600060028351612bbb9190614a4a565b67ffffffffffffffff811115612bd457612bd3614dd9565b5b6040519080825280601f01601f191660200182016040528015612c065781602001600182028036833780820191505090505b50905060005b8351811015612d44576004848281518110612c2a57612c29614daa565b5b602001015160f81c60f81b7effffffffffffffffffffffffffffffffffffffffffffffffffffffffffffff1916901c82600283612c679190614a4a565b81518110612c7857612c77614daa565b5b60200101907effffffffffffffffffffffffffffffffffffffffffffffffffffffffffffff1916908160001a9053506010848281518110612cbc57612cbb614daa565b5b602001015160f81c60f81b60f81c612cd49190614cec565b60f81b826001600284612ce79190614a4a565b612cf191906149c3565b81518110612d0257612d01614daa565b5b60200101907effffffffffffffffffffffffffffffffffffffffffffffffffffffffffffff1916908160001a9053508080612d3c90614c59565b915050612c0c565b5080915050919050565b6000602082511015612d6c5760006020830151905080915050612d83565b81806020019051810190612d80919061390d565b90505b919050565b60006060602083600001511015612da957612da283613009565b9050612db5565b612db283612b13565b90505b612dbe81612d4e565b915050919050565b6060612df8612df38360200151600081518110612de657612de5614daa565b5b6020026020010151612b13565b612ba9565b9050919050565b606082518210612e2057604051806020016040528060008152509050612e3a565b612e378383848651612e329190614aa4565b61301b565b90505b92915050565b600080600090505b808451118015612e585750808351115b8015612ee15750828181518110612e7257612e71614daa565b5b602001015160f81c60f81b7effffffffffffffffffffffffffffffffffffffffffffffffffffffffffffff1916848281518110612eb257612eb1614daa565b5b602001015160f81c60f81b7effffffffffffffffffffffffffffffffffffffffffffffffffffffffffffff1916145b15612ef9578080612ef190614c59565b915050612e48565b8091505092915050565b606060008267ffffffffffffffff811115612f2157612f20614dd9565b5b6040519080825280601f01601f191660200182016040528015612f535781602001600182028036833780820191505090505b509050600081511415612f695780915050613002565b60008486612f7791906149c3565b9050600060208301905060005b602086612f919190614a19565b811015612fcd5782518252602083612fa991906149c3565b9250602082612fb891906149c3565b91508080612fc590614c59565b915050612f84565b506000600160208781612fe357612fe2614d4c565b5b066020036101000a039050808251168119845116178252839450505050505b9392505050565b606061301482613187565b9050919050565b606081601f8361302b91906149c3565b101561306c576040517f08c379a0000000000000000000000000000000000000000000000000000000008152600401613063906145a6565b60405180910390fd5b82828461307991906149c3565b10156130ba576040517f08c379a00000000000000000000000000000000000000000000000000000000081526004016130b1906145a6565b60405180910390fd5b81836130c691906149c3565b84511015613109576040517f08c379a000000000000000000000000000000000000000000000000000000000815260040161310090614706565b60405180910390fd5b606082156000811461312a576040519150600082526020820160405261317b565b6040519150601f8416801560200281840101858101878315602002848b0101015b81831015613168578051835260208301925060208101905061314b565b50868552601f19601f8301166040525050505b50809150509392505050565b606061319d826020015160008460000151612f03565b9050919050565b6040518060800160405280600081526020016000815260200160008019168152602001600080191681525090565b604051806040016040528060608152602001606081525090565b604051806040016040528060008152602001600081525090565b6000613219613214846148a8565b614883565b9050808382526020820190508285602086028201111561323c5761323b614e17565b5b60005b8581101561326c57816132528882613367565b84526020840193506020830192505060018101905061323f565b5050509392505050565b6000613289613284846148d4565b614883565b9050828152602081018484840111156132a5576132a4614e1c565b5b6132b0848285614be6565b509392505050565b60006132cb6132c684614905565b614883565b9050828152602081018484840111156132e7576132e6614e1c565b5b6132f2848285614be6565b509392505050565b6000813590506133098161558d565b92915050565b60008151905061331e8161558d565b92915050565b600082601f83011261333957613338614e08565b5b8135613349848260208601613206565b91505092915050565b600081519050613361816155a4565b92915050565b600081359050613376816155bb565b92915050565b60008151905061338b816155bb565b92915050565b600082601f8301126133a6576133a5614e08565b5b81356133b6848260208601613276565b91505092915050565b600082601f8301126133d4576133d3614e08565b5b81356133e48482602086016132b8565b91505092915050565b600060a0828403121561340357613402614e0d565b5b61340d60a0614883565b9050600061341d84828501613661565b600083015250602061343184828501613367565b602083015250604061344584828501613661565b604083015250606061345984828501613661565b606083015250608082013567ffffffffffffffff81111561347d5761347c614e12565b5b61348984828501613391565b60808301525092915050565b6000604082840312156134ab576134aa614e0d565b5b6134b56040614883565b905060006134c584828501613661565b600083015250602082013567ffffffffffffffff8111156134e9576134e8614e12565b5b6134f584828501613324565b60208301525092915050565b600060a0828403121561351757613516614e0d565b5b61352160a0614883565b9050600061353184828501613367565b600083015250602082013567ffffffffffffffff81111561355557613554614e12565b5b613561848285016133ed565b602083015250604082013567ffffffffffffffff81111561358557613584614e12565b5b61359184828501613495565b604083015250606082013567ffffffffffffffff8111156135b5576135b4614e12565b5b6135c184828501613391565b606083015250608082013567ffffffffffffffff8111156135e5576135e4614e12565b5b6135f184828501613391565b60808301525092915050565b60006060828403121561361357613612614e0d565b5b61361d6060614883565b9050600061362d8482850161337c565b60008301525060206136418482850161368b565b60208301525060406136558482850161368b565b60408301525092915050565b600081359050613670816155d2565b92915050565b600081359050613685816155e9565b92915050565b60008151905061369a81615600565b92915050565b6000602082840312156136b6576136b5614e26565b5b60006136c4848285016132fa565b91505092915050565b6000602082840312156136e3576136e2614e26565b5b60006136f18482850161330f565b91505092915050565b600080600080600060a0868803121561371657613715614e26565b5b6000613724888289016132fa565b9550506020613735888289016132fa565b945050604086013567ffffffffffffffff81111561375657613755614e21565b5b61376288828901613391565b935050606061377388828901613661565b925050608086013567ffffffffffffffff81111561379457613793614e21565b5b6137a088828901613501565b9150509295509295909350565b600080600080600060a086880312156137c9576137c8614e26565b5b60006137d7888289016132fa565b95505060206137e8888289016132fa565b945050604086013567ffffffffffffffff81111561380957613808614e21565b5b61381588828901613391565b935050606061382688828901613661565b925050608061383788828901613676565b9150509295509295909350565b60008060006060848603121561385d5761385c614e26565b5b600061386b868287016132fa565b935050602084013567ffffffffffffffff81111561388c5761388b614e21565b5b61389886828701613391565b92505060406138a986828701613676565b9150509250925092565b6000602082840312156138c9576138c8614e26565b5b60006138d784828501613352565b91505092915050565b6000602082840312156138f6576138f5614e26565b5b600061390484828501613367565b91505092915050565b60006020828403121561392357613922614e26565b5b60006139318482850161337c565b91505092915050565b6000602082840312156139505761394f614e26565b5b600082013567ffffffffffffffff81111561396e5761396d614e21565b5b61397a848285016133bf565b91505092915050565b60006060828403121561399957613998614e26565b5b60006139a7848285016135fd565b91505092915050565b6000602082840312156139c6576139c5614e26565b5b60006139d48482850161368b565b91505092915050565b60006139e98383613a88565b60208301905092915050565b6139fe81614b0c565b82525050565b613a15613a1082614b0c565b614ca2565b82525050565b6000613a2682614946565b613a308185614974565b9350613a3b83614936565b8060005b83811015613a6c578151613a5388826139dd565b9750613a5e83614967565b925050600181019050613a3f565b5085935050505092915050565b613a8281614b1e565b82525050565b613a9181614b2a565b82525050565b613aa081614b2a565b82525050565b613ab7613ab282614b2a565b614cb4565b82525050565b6000613ac882614951565b613ad28185614985565b9350613ae2818560208601614bf5565b613aeb81614e2b565b840191505092915050565b6000613b0182614951565b613b0b8185614996565b9350613b1b818560208601614bf5565b613b2481614e2b565b840191505092915050565b6000613b3a82614951565b613b4481856149a7565b9350613b54818560208601614bf5565b80840191505092915050565b613b6981614b8c565b82525050565b6000613b7a8261495c565b613b8481856149b2565b9350613b94818560208601614bf5565b613b9d81614e2b565b840191505092915050565b6000613bb5601b836149b2565b9150613bc082614e56565b602082019050919050565b6000613bd8601d836149b2565b9150613be382614e7f565b602082019050919050565b6000613bfb601f836149b2565b9150613c0682614ea8565b602082019050919050565b6000613c1e601a836149b2565b9150613c2982614ed1565b602082019050919050565b6000613c416016836149b2565b9150613c4c82614efa565b602082019050919050565b6000613c646026836149b2565b9150613c6f82614f23565b604082019050919050565b6000613c87602b836149b2565b9150613c9282614f72565b604082019050919050565b6000613caa604d836149b2565b9150613cb582614fc1565b606082019050919050565b6000613ccd601d836149b2565b9150613cd882615036565b602082019050919050565b6000613cf0601f836149b2565b9150613cfb8261505f565b602082019050919050565b6000613d13602a836149b2565b9150613d1e82615088565b604082019050919050565b6000613d366022836149b2565b9150613d41826150d7565b604082019050919050565b6000613d59600e836149b2565b9150613d6482615126565b602082019050919050565b6000613d7c6010836149b2565b9150613d878261514f565b602082019050919050565b6000613d9f601a836149b2565b9150613daa82615178565b602082019050919050565b6000613dc2602e836149b2565b9150613dcd826151a1565b604082019050919050565b6000613de56036836149b2565b9150613df0826151f0565b604082019050919050565b6000613e086027836149b2565b9150613e138261523f565b604082019050919050565b6000613e2b6017836149b2565b9150613e368261528e565b602082019050919050565b6000613e4e6019836149b2565b9150613e59826152b7565b602082019050919050565b6000613e716026836149b2565b9150613e7c826152e0565b604082019050919050565b6000613e946020836149b2565b9150613e9f8261532f565b602082019050919050565b6000613eb76018836149b2565b9150613ec282615358565b602082019050919050565b6000613eda6011836149b2565b9150613ee582615381565b602082019050919050565b6000613efd602a836149b2565b9150613f08826153aa565b604082019050919050565b6000613f206018836149b2565b9150613f2b826153f9565b602082019050919050565b6000613f43601a836149b2565b9150613f4e82615422565b602082019050919050565b6000613f666018836149b2565b9150613f718261544b565b602082019050919050565b6000613f89601f836149b2565b9150613f9482615474565b602082019050919050565b6000613fac6033836149b2565b9150613fb78261549d565b604082019050919050565b6000613fcf6011836149b2565b9150613fda826154ec565b602082019050919050565b6000613ff26017836149b2565b9150613ffd82615515565b602082019050919050565b60006140156027836149b2565b91506140208261553e565b604082019050919050565b600060a08301600083015161404360008601826140de565b5060208301516140566020860182613a88565b50604083015161406960408601826140de565b50606083015161407c60608601826140de565b50608083015184820360808601526140948282613abd565b9150508091505092915050565b60006040830160008301516140b960008601826140de565b50602083015184820360208601526140d18282613a1b565b9150508091505092915050565b6140e781614b54565b82525050565b6140f681614b54565b82525050565b61410d61410882614b54565b614cd0565b82525050565b61411c81614bc2565b82525050565b61412b81614b5e565b82525050565b61413a81614bd4565b82525050565b61415161414c82614b7f565b614cda565b82525050565b60006141638284613a04565b60148201915081905092915050565b600061417e8284613aa6565b60208201915081905092915050565b60006141998285613aa6565b6020820191506141a982846140fc565b6020820191508190509392505050565b60006141c58284613b2f565b915081905092915050565b60006141dc8285613b2f565b91506141e88284613a04565b6014820191508190509392505050565b60006142048286613b2f565b91506142108285613a04565b60148201915061422082846140fc565b602082019150819050949350505050565b600061423d8284614140565b60018201915081905092915050565b600060208201905061426160008301846139f5565b92915050565b600060808201905061427c60008301876139f5565b61428960208301866139f5565b818103604083015261429b8185613af6565b90506142aa60608301846140ed565b95945050505050565b60006080820190506142c860008301876139f5565b6142d560208301866139f5565b6142e26040830185614122565b81810360608301526142f48184613af6565b905095945050505050565b600060808201905061431460008301876139f5565b81810360208301526143268186613af6565b90506143356040830185614131565b6143426060830184614113565b95945050505050565b600060608201905061436060008301866139f5565b61436d60208301856140ed565b818103604083015261437f8184613af6565b9050949350505050565b600060208201905061439e6000830184613a79565b92915050565b60006060820190506143b96000830186613a97565b81810360208301526143cb818561402b565b905081810360408301526143df81846140a1565b9050949350505050565b60006020820190506143fe6000830184613b60565b92915050565b6000602082019050818103600083015261441e8184613b6f565b905092915050565b6000602082019050818103600083015261443f81613ba8565b9050919050565b6000602082019050818103600083015261445f81613bcb565b9050919050565b6000602082019050818103600083015261447f81613bee565b9050919050565b6000602082019050818103600083015261449f81613c11565b9050919050565b600060208201905081810360008301526144bf81613c34565b9050919050565b600060208201905081810360008301526144df81613c57565b9050919050565b600060208201905081810360008301526144ff81613c7a565b9050919050565b6000602082019050818103600083015261451f81613c9d565b9050919050565b6000602082019050818103600083015261453f81613cc0565b9050919050565b6000602082019050818103600083015261455f81613ce3565b9050919050565b6000602082019050818103600083015261457f81613d06565b9050919050565b6000602082019050818103600083015261459f81613d29565b9050919050565b600060208201905081810360008301526145bf81613d4c565b9050919050565b600060208201905081810360008301526145df81613d6f565b9050919050565b600060208201905081810360008301526145ff81613d92565b9050919050565b6000602082019050818103600083015261461f81613db5565b9050919050565b6000602082019050818103600083015261463f81613dd8565b9050919050565b6000602082019050818103600083015261465f81613dfb565b9050919050565b6000602082019050818103600083015261467f81613e1e565b9050919050565b6000602082019050818103600083015261469f81613e41565b9050919050565b600060208201905081810360008301526146bf81613e64565b9050919050565b600060208201905081810360008301526146df81613e87565b9050919050565b600060208201905081810360008301526146ff81613eaa565b9050919050565b6000602082019050818103600083015261471f81613ecd565b9050919050565b6000602082019050818103600083015261473f81613ef0565b9050919050565b6000602082019050818103600083015261475f81613f13565b9050919050565b6000602082019050818103600083015261477f81613f36565b9050919050565b6000602082019050818103600083015261479f81613f59565b9050919050565b600060208201905081810360008301526147bf81613f7c565b9050919050565b600060208201905081810360008301526147df81613f9f565b9050919050565b600060208201905081810360008301526147ff81613fc2565b9050919050565b6000602082019050818103600083015261481f81613fe5565b9050919050565b6000602082019050818103600083015261483f81614008565b9050919050565b60006020820190508181036000830152614860818461402b565b905092915050565b600060208201905061487d60008301846140ed565b92915050565b600061488d61489e565b90506148998282614c28565b919050565b6000604051905090565b600067ffffffffffffffff8211156148c3576148c2614dd9565b5b602082029050602081019050919050565b600067ffffffffffffffff8211156148ef576148ee614dd9565b5b6148f882614e2b565b9050602081019050919050565b600067ffffffffffffffff8211156149205761491f614dd9565b5b61492982614e2b565b9050602081019050919050565b6000819050602082019050919050565b600081519050919050565b600081519050919050565b600081519050919050565b6000602082019050919050565b600082825260208201905092915050565b600082825260208201905092915050565b600082825260208201905092915050565b600081905092915050565b600082825260208201905092915050565b60006149ce82614b54565b91506149d983614b54565b9250827fffffffffffffffffffffffffffffffffffffffffffffffffffffffffffffffff03821115614a0e57614a0d614d1d565b5b828201905092915050565b6000614a2482614b54565b9150614a2f83614b54565b925082614a3f57614a3e614d4c565b5b828204905092915050565b6000614a5582614b54565b9150614a6083614b54565b9250817fffffffffffffffffffffffffffffffffffffffffffffffffffffffffffffffff0483118215151615614a9957614a98614d1d565b5b828202905092915050565b6000614aaf82614b54565b9150614aba83614b54565b925082821015614acd57614acc614d1d565b5b828203905092915050565b6000614ae382614b7f565b9150614aee83614b7f565b925082821015614b0157614b00614d1d565b5b828203905092915050565b6000614b1782614b34565b9050919050565b60008115159050919050565b6000819050919050565b600073ffffffffffffffffffffffffffffffffffffffff82169050919050565b6000819050919050565b600063ffffffff82169050919050565b600064ffffffffff82169050919050565b600060ff82169050919050565b6000614b9782614b9e565b9050919050565b6000614ba982614bb0565b9050919050565b6000614bbb82614b34565b9050919050565b6000614bcd82614b5e565b9050919050565b6000614bdf82614b6e565b9050919050565b82818337600083830152505050565b60005b83811015614c13578082015181840152602081019050614bf8565b83811115614c22576000848401525b50505050565b614c3182614e2b565b810181811067ffffffffffffffff82111715614c5057614c4f614dd9565b5b80604052505050565b6000614c6482614b54565b91507fffffffffffffffffffffffffffffffffffffffffffffffffffffffffffffffff821415614c9757614c96614d1d565b5b600182019050919050565b6000614cad82614cbe565b9050919050565b6000819050919050565b6000614cc982614e49565b9050919050565b6000819050919050565b6000614ce582614e3c565b9050919050565b6000614cf782614b7f565b9150614d0283614b7f565b925082614d1257614d11614d4c565b5b828206905092915050565b7f4e487b7100000000000000000000000000000000000000000000000000000000600052601160045260246000fd5b7f4e487b7100000000000000000000000000000000000000000000000000000000600052601260045260246000fd5b7f4e487b7100000000000000000000000000000000000000000000000000000000600052602160045260246000fd5b7f4e487b7100000000000000000000000000000000000000000000000000000000600052603260045260246000fd5b7f4e487b7100000000000000000000000000000000000000000000000000000000600052604160045260246000fd5b600080fd5b600080fd5b600080fd5b600080fd5b600080fd5b600080fd5b600080fd5b6000601f19601f8301169050919050565b60008160f81b9050919050565b60008160601b9050919050565b7f496e76616c6964206c6172676520696e7465726e616c20686173680000000000600082015250565b7f496e76616c696420524c50206c6f6e67206c697374206c656e6774682e000000600082015250565b7f78446f6d61696e4d65737361676553656e646572206973206e6f742073657400600082015250565b7f50726f76696465642070726f6f6620697320696e76616c69642e000000000000600082015250565b7f496e76616c696420524c50206c6f6e67206c6973742e00000000000000000000600082015250565b7f4f776e61626c653a206e6577206f776e657220697320746865207a65726f206160008201527f6464726573730000000000000000000000000000000000000000000000000000602082015250565b7f50726f7669646564206d6573736167652068617320616c72656164792062656560008201527f6e2072656365697665642e000000000000000000000000000000000000000000602082015250565b7f4d6573736167652070617373696e67207072656465706c6f7920686173206e6f60008201527f74206265656e20696e697469616c697a6564206f7220696e76616c696420707260208201527f6f6f662070726f76696465642e00000000000000000000000000000000000000604082015250565b7f526563656976656420616e20756e706172736561626c65206e6f64652e000000600082015250565b7f496e76616c696420524c50206c6f6e6720737472696e67206c656e6774682e00600082015250565b7f50726f766964656420524c50206c6973742065786365656473206d6178206c6960008201527f7374206c656e6774682e00000000000000000000000000000000000000000000602082015250565b7f50726f7669646564206d65737361676520686173206265656e20626c6f636b6560008201527f642e000000000000000000000000000000000000000000000000000000000000602082015250565b7f736c6963655f6f766572666c6f77000000000000000000000000000000000000600082015250565b7f5061757361626c653a2070617573656400000000000000000000000000000000600082015250565b7f496e76616c696420524c5020627974657333322076616c75652e000000000000600082015250565b7f496e697469616c697a61626c653a20636f6e747261637420697320616c72656160008201527f647920696e697469616c697a6564000000000000000000000000000000000000602082015250565b7f4f6e6c79204f564d5f4c324d65737361676552656c617965722063616e20726560008201527f6c6179204c322d746f2d4c31206d657373616765732e00000000000000000000602082015250565b7f50726f7669646564206d65737361676520636f756c64206e6f7420626520766560008201527f7269666965642e00000000000000000000000000000000000000000000000000602082015250565b7f496e76616c696420524c50206c6973742076616c75652e000000000000000000600082015250565b7f496e76616c696420524c502073686f727420737472696e672e00000000000000600082015250565b7f52656365697665642061206e6f6465207769746820616e20756e6b6e6f776e2060008201527f7072656669780000000000000000000000000000000000000000000000000000602082015250565b7f4f776e61626c653a2063616c6c6572206973206e6f7420746865206f776e6572600082015250565b7f524c50206974656d2063616e6e6f74206265206e756c6c2e0000000000000000600082015250565b7f736c6963655f6f75744f66426f756e6473000000000000000000000000000000600082015250565b7f4c3143726f7373446f6d61696e4d657373656e67657220616c7265616479206960008201527f6e7469616c697a65642e00000000000000000000000000000000000000000000602082015250565b7f496e76616c696420524c50206c6f6e6720737472696e672e0000000000000000600082015250565b7f496e76616c696420696e7465726e616c206e6f64652068617368000000000000600082015250565b7f496e76616c696420524c502062797465732076616c75652e0000000000000000600082015250565b7f5265656e7472616e637947756172643a207265656e7472616e742063616c6c00600082015250565b7f43616e6e6f742073656e64204c322d3e4c31206d6573736167657320746f204c60008201527f312073797374656d20636f6e7472616374732e00000000000000000000000000602082015250565b7f496e76616c696420726f6f742068617368000000000000000000000000000000600082015250565b7f496e76616c696420524c502073686f7274206c6973742e000000000000000000600082015250565b7f50726f7669646564206d65737361676520686173206e6f74206265656e20656e60008201527f7175657565642e00000000000000000000000000000000000000000000000000602082015250565b61559681614b0c565b81146155a157600080fd5b50565b6155ad81614b1e565b81146155b857600080fd5b50565b6155c481614b2a565b81146155cf57600080fd5b50565b6155db81614b54565b81146155e657600080fd5b50565b6155f281614b5e565b81146155fd57600080fd5b50565b61560981614b6e565b811461561457600080fd5b5056fea2646970667358221220239ea433e40d98323f1f8577d8b93e0f11de9ce185bfd2c5f4e16039f750c7b064736f6c63430008070033",
  "devdoc": {
    "details": "The L1 Cross Domain Messenger contract sends messages from L1 to L2, and relays messages from L2 onto L1. In the event that a message sent from L1 to L2 is rejected for exceeding the L2 epoch gas limit, it can be resubmitted via this contract's replay function. Runtime target: EVM",
    "kind": "dev",
    "methods": {
      "allowMessage(bytes32)": {
        "params": {
          "_xDomainCalldataHash": "Hash of the message to block."
        }
      },
      "blockMessage(bytes32)": {
        "params": {
          "_xDomainCalldataHash": "Hash of the message to block."
        }
      },
      "initialize(address)": {
        "params": {
          "_libAddressManager": "Address of the Address Manager."
        }
      },
      "owner()": {
        "details": "Returns the address of the current owner."
      },
      "paused()": {
        "details": "Returns true if the contract is paused, and false otherwise."
      },
      "relayMessage(address,address,bytes,uint256,(bytes32,(uint256,bytes32,uint256,uint256,bytes),(uint256,bytes32[]),bytes,bytes))": {
        "params": {
          "_message": "Message to send to the target.",
          "_messageNonce": "Nonce for the provided message.",
          "_proof": "Inclusion proof for the given message.",
          "_sender": "Message sender address.",
          "_target": "Target contract address."
        }
      },
      "renounceOwnership()": {
        "details": "Leaves the contract without owner. It will not be possible to call `onlyOwner` functions anymore. Can only be called by the current owner. NOTE: Renouncing ownership will leave the contract without an owner, thereby removing any functionality that is only available to the owner."
      },
      "replayMessage(address,address,bytes,uint256,uint32)": {
        "params": {
          "_gasLimit": "Gas limit for the provided message.",
          "_message": "Message to send to the target.",
          "_queueIndex": "CTC Queue index for the message to replay.",
          "_sender": "Original sender address.",
          "_target": "Target contract address."
        }
      },
      "resolve(string)": {
        "params": {
          "_name": "Name to resolve an address for."
        },
        "returns": {
          "_0": "Address associated with the given name."
        }
      },
      "sendMessage(address,bytes,uint32)": {
        "params": {
          "_gasLimit": "Gas limit for the provided message.",
          "_message": "Message to send to the target.",
          "_target": "Target contract address."
        }
      },
      "transferOwnership(address)": {
        "details": "Transfers ownership of the contract to a new account (`newOwner`). Can only be called by the current owner."
      }
    },
    "title": "L1CrossDomainMessenger",
    "version": 1
  },
  "userdoc": {
    "kind": "user",
    "methods": {
      "allowMessage(bytes32)": {
        "notice": "Allow a message."
      },
      "blockMessage(bytes32)": {
        "notice": "Block a message."
      },
      "constructor": {
        "notice": "This contract is intended to be behind a delegate proxy. We pass the zero address to the address resolver just to satisfy the constructor. We still need to set this value in initialize()."
      },
      "pause()": {
        "notice": "Pause relaying."
      },
      "relayMessage(address,address,bytes,uint256,(bytes32,(uint256,bytes32,uint256,uint256,bytes),(uint256,bytes32[]),bytes,bytes))": {
        "notice": "Relays a cross domain message to a contract."
      },
      "replayMessage(address,address,bytes,uint256,uint32)": {
        "notice": "Replays a cross domain message to the target messenger."
      },
      "resolve(string)": {
        "notice": "Resolves the address associated with a given name."
      },
      "sendMessage(address,bytes,uint32)": {
        "notice": "Sends a cross domain message to the target messenger."
      }
    },
    "version": 1
  },
  "storageLayout": {
    "storage": [
      {
        "astId": 7832,
        "contract": "contracts/L1/messaging/L1CrossDomainMessenger.sol:L1CrossDomainMessenger",
        "label": "libAddressManager",
        "offset": 0,
        "slot": "0",
        "type": "t_contract(Lib_AddressManager)7824"
      },
      {
        "astId": 130,
        "contract": "contracts/L1/messaging/L1CrossDomainMessenger.sol:L1CrossDomainMessenger",
        "label": "_initialized",
        "offset": 20,
        "slot": "0",
        "type": "t_bool"
      },
      {
        "astId": 133,
        "contract": "contracts/L1/messaging/L1CrossDomainMessenger.sol:L1CrossDomainMessenger",
        "label": "_initializing",
        "offset": 21,
        "slot": "0",
        "type": "t_bool"
      },
      {
        "astId": 384,
        "contract": "contracts/L1/messaging/L1CrossDomainMessenger.sol:L1CrossDomainMessenger",
        "label": "__gap",
        "offset": 0,
        "slot": "1",
        "type": "t_array(t_uint256)50_storage"
      },
      {
        "astId": 10,
        "contract": "contracts/L1/messaging/L1CrossDomainMessenger.sol:L1CrossDomainMessenger",
        "label": "_owner",
        "offset": 0,
        "slot": "51",
        "type": "t_address"
      },
      {
        "astId": 123,
        "contract": "contracts/L1/messaging/L1CrossDomainMessenger.sol:L1CrossDomainMessenger",
        "label": "__gap",
        "offset": 0,
        "slot": "52",
        "type": "t_array(t_uint256)49_storage"
      },
      {
        "astId": 191,
        "contract": "contracts/L1/messaging/L1CrossDomainMessenger.sol:L1CrossDomainMessenger",
        "label": "_paused",
        "offset": 0,
        "slot": "101",
        "type": "t_bool"
      },
      {
        "astId": 282,
        "contract": "contracts/L1/messaging/L1CrossDomainMessenger.sol:L1CrossDomainMessenger",
        "label": "__gap",
        "offset": 0,
        "slot": "102",
        "type": "t_array(t_uint256)49_storage"
      },
      {
        "astId": 297,
        "contract": "contracts/L1/messaging/L1CrossDomainMessenger.sol:L1CrossDomainMessenger",
        "label": "_status",
        "offset": 0,
        "slot": "151",
        "type": "t_uint256"
      },
      {
        "astId": 340,
        "contract": "contracts/L1/messaging/L1CrossDomainMessenger.sol:L1CrossDomainMessenger",
        "label": "__gap",
        "offset": 0,
        "slot": "152",
        "type": "t_array(t_uint256)49_storage"
      },
      {
        "astId": 2267,
        "contract": "contracts/L1/messaging/L1CrossDomainMessenger.sol:L1CrossDomainMessenger",
        "label": "blockedMessages",
        "offset": 0,
        "slot": "201",
        "type": "t_mapping(t_bytes32,t_bool)"
      },
      {
        "astId": 2271,
        "contract": "contracts/L1/messaging/L1CrossDomainMessenger.sol:L1CrossDomainMessenger",
        "label": "relayedMessages",
        "offset": 0,
        "slot": "202",
        "type": "t_mapping(t_bytes32,t_bool)"
      },
      {
        "astId": 2275,
        "contract": "contracts/L1/messaging/L1CrossDomainMessenger.sol:L1CrossDomainMessenger",
        "label": "successfulMessages",
        "offset": 0,
        "slot": "203",
        "type": "t_mapping(t_bytes32,t_bool)"
      },
      {
        "astId": 2279,
        "contract": "contracts/L1/messaging/L1CrossDomainMessenger.sol:L1CrossDomainMessenger",
        "label": "xDomainMsgSender",
        "offset": 0,
        "slot": "204",
        "type": "t_address"
      }
    ],
    "types": {
      "t_address": {
        "encoding": "inplace",
        "label": "address",
        "numberOfBytes": "20"
      },
      "t_array(t_uint256)49_storage": {
        "base": "t_uint256",
        "encoding": "inplace",
        "label": "uint256[49]",
        "numberOfBytes": "1568"
      },
      "t_array(t_uint256)50_storage": {
        "base": "t_uint256",
        "encoding": "inplace",
        "label": "uint256[50]",
        "numberOfBytes": "1600"
      },
      "t_bool": {
        "encoding": "inplace",
        "label": "bool",
        "numberOfBytes": "1"
      },
      "t_bytes32": {
        "encoding": "inplace",
        "label": "bytes32",
        "numberOfBytes": "32"
      },
      "t_contract(Lib_AddressManager)7824": {
        "encoding": "inplace",
        "label": "contract Lib_AddressManager",
        "numberOfBytes": "20"
      },
      "t_mapping(t_bytes32,t_bool)": {
        "encoding": "mapping",
        "key": "t_bytes32",
        "label": "mapping(bytes32 => bool)",
        "numberOfBytes": "32",
        "value": "t_bool"
      },
      "t_uint256": {
        "encoding": "inplace",
        "label": "uint256",
        "numberOfBytes": "32"
      }
    }
  }
}