{
  "address": "0x874d3616B14854C93F884f9ac88d6A07af5d56Fd",
  "abi": [
    {
      "inputs": [
        {
          "internalType": "address",
          "name": "_libAddressManager",
          "type": "address"
        },
        {
          "internalType": "uint256",
          "name": "_fraudProofWindow",
          "type": "uint256"
        },
        {
          "internalType": "uint256",
          "name": "_sequencerPublishWindow",
          "type": "uint256"
        }
      ],
      "stateMutability": "nonpayable",
      "type": "constructor"
    },
    {
      "anonymous": false,
      "inputs": [
        {
          "indexed": true,
          "internalType": "uint256",
          "name": "_batchIndex",
          "type": "uint256"
        },
        {
          "indexed": false,
          "internalType": "bytes32",
          "name": "_batchRoot",
          "type": "bytes32"
        },
        {
          "indexed": false,
          "internalType": "uint256",
          "name": "_batchSize",
          "type": "uint256"
        },
        {
          "indexed": false,
          "internalType": "uint256",
          "name": "_prevTotalElements",
          "type": "uint256"
        },
        {
          "indexed": false,
          "internalType": "bytes",
          "name": "_extraData",
          "type": "bytes"
        }
      ],
      "name": "StateBatchAppended",
      "type": "event"
    },
    {
      "anonymous": false,
      "inputs": [
        {
          "indexed": true,
          "internalType": "uint256",
          "name": "_batchIndex",
          "type": "uint256"
        },
        {
          "indexed": false,
          "internalType": "bytes32",
          "name": "_batchRoot",
          "type": "bytes32"
        }
      ],
      "name": "StateBatchDeleted",
      "type": "event"
    },
    {
      "inputs": [],
      "name": "FRAUD_PROOF_WINDOW",
      "outputs": [
        {
          "internalType": "uint256",
          "name": "",
          "type": "uint256"
        }
      ],
      "stateMutability": "view",
      "type": "function"
    },
    {
      "inputs": [],
      "name": "SEQUENCER_PUBLISH_WINDOW",
      "outputs": [
        {
          "internalType": "uint256",
          "name": "",
          "type": "uint256"
        }
      ],
      "stateMutability": "view",
      "type": "function"
    },
    {
      "inputs": [
        {
          "internalType": "bytes32[]",
          "name": "_batch",
          "type": "bytes32[]"
        },
        {
          "internalType": "uint256",
          "name": "_shouldStartAtElement",
          "type": "uint256"
        }
      ],
      "name": "appendStateBatch",
      "outputs": [],
      "stateMutability": "nonpayable",
      "type": "function"
    },
    {
      "inputs": [],
      "name": "batches",
      "outputs": [
        {
          "internalType": "contract IChainStorageContainer",
          "name": "",
          "type": "address"
        }
      ],
      "stateMutability": "view",
      "type": "function"
    },
    {
      "inputs": [
        {
          "components": [
            {
              "internalType": "uint256",
              "name": "batchIndex",
              "type": "uint256"
            },
            {
              "internalType": "bytes32",
              "name": "batchRoot",
              "type": "bytes32"
            },
            {
              "internalType": "uint256",
              "name": "batchSize",
              "type": "uint256"
            },
            {
              "internalType": "uint256",
              "name": "prevTotalElements",
              "type": "uint256"
            },
            {
              "internalType": "bytes",
              "name": "extraData",
              "type": "bytes"
            }
          ],
          "internalType": "struct Lib_OVMCodec.ChainBatchHeader",
          "name": "_batchHeader",
          "type": "tuple"
        }
      ],
      "name": "deleteStateBatch",
      "outputs": [],
      "stateMutability": "nonpayable",
      "type": "function"
    },
    {
      "inputs": [],
      "name": "getLastSequencerTimestamp",
      "outputs": [
        {
          "internalType": "uint256",
          "name": "_lastSequencerTimestamp",
          "type": "uint256"
        }
      ],
      "stateMutability": "view",
      "type": "function"
    },
    {
      "inputs": [],
      "name": "getTotalBatches",
      "outputs": [
        {
          "internalType": "uint256",
          "name": "_totalBatches",
          "type": "uint256"
        }
      ],
      "stateMutability": "view",
      "type": "function"
    },
    {
      "inputs": [],
      "name": "getTotalElements",
      "outputs": [
        {
          "internalType": "uint256",
          "name": "_totalElements",
          "type": "uint256"
        }
      ],
      "stateMutability": "view",
      "type": "function"
    },
    {
      "inputs": [
        {
          "components": [
            {
              "internalType": "uint256",
              "name": "batchIndex",
              "type": "uint256"
            },
            {
              "internalType": "bytes32",
              "name": "batchRoot",
              "type": "bytes32"
            },
            {
              "internalType": "uint256",
              "name": "batchSize",
              "type": "uint256"
            },
            {
              "internalType": "uint256",
              "name": "prevTotalElements",
              "type": "uint256"
            },
            {
              "internalType": "bytes",
              "name": "extraData",
              "type": "bytes"
            }
          ],
          "internalType": "struct Lib_OVMCodec.ChainBatchHeader",
          "name": "_batchHeader",
          "type": "tuple"
        }
      ],
      "name": "insideFraudProofWindow",
      "outputs": [
        {
          "internalType": "bool",
          "name": "_inside",
          "type": "bool"
        }
      ],
      "stateMutability": "view",
      "type": "function"
    },
    {
      "inputs": [],
      "name": "libAddressManager",
      "outputs": [
        {
          "internalType": "contract Lib_AddressManager",
          "name": "",
          "type": "address"
        }
      ],
      "stateMutability": "view",
      "type": "function"
    },
    {
      "inputs": [
        {
          "internalType": "string",
          "name": "_name",
          "type": "string"
        }
      ],
      "name": "resolve",
      "outputs": [
        {
          "internalType": "address",
          "name": "",
          "type": "address"
        }
      ],
      "stateMutability": "view",
      "type": "function"
    },
    {
      "inputs": [
        {
          "internalType": "bytes32",
          "name": "_element",
          "type": "bytes32"
        },
        {
          "components": [
            {
              "internalType": "uint256",
              "name": "batchIndex",
              "type": "uint256"
            },
            {
              "internalType": "bytes32",
              "name": "batchRoot",
              "type": "bytes32"
            },
            {
              "internalType": "uint256",
              "name": "batchSize",
              "type": "uint256"
            },
            {
              "internalType": "uint256",
              "name": "prevTotalElements",
              "type": "uint256"
            },
            {
              "internalType": "bytes",
              "name": "extraData",
              "type": "bytes"
            }
          ],
          "internalType": "struct Lib_OVMCodec.ChainBatchHeader",
          "name": "_batchHeader",
          "type": "tuple"
        },
        {
          "components": [
            {
              "internalType": "uint256",
              "name": "index",
              "type": "uint256"
            },
            {
              "internalType": "bytes32[]",
              "name": "siblings",
              "type": "bytes32[]"
            }
          ],
          "internalType": "struct Lib_OVMCodec.ChainInclusionProof",
          "name": "_proof",
          "type": "tuple"
        }
      ],
      "name": "verifyStateCommitment",
      "outputs": [
        {
          "internalType": "bool",
          "name": "",
          "type": "bool"
        }
      ],
      "stateMutability": "view",
      "type": "function"
    }
  ],
  "transactionHash": "0x615473d97afe2068432c6ce6148b748d560d5687f913f84317f430a8433acdaa",
  "args": [
    "0xE8cbD28a5cc96ca86513ad8847D344EE634D0A9D",
    604800,
    1800
  ],
  "solcInputHash": "57c40cf5c155d19ac0bd1dac14b9b230",
  "bytecode": "0x60806040523480156200001157600080fd5b5060405162002f8438038062002f848339818101604052810190620000379190620000be565b82806000806101000a81548173ffffffffffffffffffffffffffffffffffffffff021916908373ffffffffffffffffffffffffffffffffffffffff16021790555050816001819055508060028190555050505062000191565b600081519050620000a1816200015d565b92915050565b600081519050620000b88162000177565b92915050565b600080600060608486031215620000da57620000d962000158565b5b6000620000ea8682870162000090565b9350506020620000fd86828701620000a7565b92505060406200011086828701620000a7565b9150509250925092565b600062000127826200012e565b9050919050565b600073ffffffffffffffffffffffffffffffffffffffff82169050919050565b6000819050919050565b600080fd5b62000168816200011a565b81146200017457600080fd5b50565b62000182816200014e565b81146200018e57600080fd5b50565b612de380620001a16000396000f3fe608060405234801561001057600080fd5b50600436106100b45760003560e01c80638ca5cbb9116100715780638ca5cbb9146101915780639418bddd146101ad578063b8e189ac146101dd578063c17b291b146101f9578063cfdf677e14610217578063e561dddc14610235576100b4565b8063299ca478146100b9578063461a4478146100d75780634d69ee57146101075780637aa63a86146101375780637ad168a01461015557806381eb62ef14610173575b600080fd5b6100c1610253565b6040516100ce91906120a9565b60405180910390f35b6100f160048036038101906100ec9190611b7b565b610277565b6040516100fe9190611fc8565b60405180910390f35b610121600480360381019061011c9190611af0565b61032a565b60405161012e9190611fe3565b60405180910390f35b61013f6103db565b60405161014c91906122e6565b60405180910390f35b61015d6103f7565b60405161016a91906122e6565b60405180910390f35b61017b610413565b60405161018891906122e6565b60405180910390f35b6101ab60048036038101906101a69190611a0d565b610419565b005b6101c760048036038101906101c29190611bc4565b6106ea565b6040516101d49190611fe3565b60405180910390f35b6101f760048036038101906101f29190611bc4565b610764565b005b6102016108ab565b60405161020e91906122e6565b60405180910390f35b61021f6108b1565b60405161022c919061208e565b60405180910390f35b61023d6108d9565b60405161024a91906122e6565b60405180910390f35b60008054906101000a900473ffffffffffffffffffffffffffffffffffffffff1681565b60008060009054906101000a900473ffffffffffffffffffffffffffffffffffffffff1673ffffffffffffffffffffffffffffffffffffffff1663bf40fac1836040518263ffffffff1660e01b81526004016102d391906120c4565b60206040518083038186803b1580156102eb57600080fd5b505afa1580156102ff573d6000803e3d6000fd5b505050506040513d601f19601f8201168201806040525081019061032391906119e0565b9050919050565b600061033583610965565b610374576040517f08c379a000000000000000000000000000000000000000000000000000000000815260040161036b906121a6565b60405180910390fd5b610391836020015185846000015185602001518760400151610a0c565b6103d0576040517f08c379a00000000000000000000000000000000000000000000000000000000081526004016103c790612106565b60405180910390fd5b600190509392505050565b6000806103e6610bb3565b5090508064ffffffffff1691505090565b600080610402610bb3565b9150508064ffffffffff1691505090565b60025481565b6104216103db565b8114610462576040517f08c379a000000000000000000000000000000000000000000000000000000000815260040161045990612166565b60405180910390fd5b6104a06040518060400160405280600b81526020017f426f6e644d616e61676572000000000000000000000000000000000000000000815250610277565b73ffffffffffffffffffffffffffffffffffffffff166302ad4d2a336040518263ffffffff1660e01b81526004016104d89190611fc8565b60206040518083038186803b1580156104f057600080fd5b505afa158015610504573d6000803e3d6000fd5b505050506040513d601f19601f820116820180604052508101906105289190611a69565b610567576040517f08c379a000000000000000000000000000000000000000000000000000000000815260040161055e90612266565b60405180910390fd5b60008251116105ab576040517f08c379a00000000000000000000000000000000000000000000000000000000081526004016105a290612226565b60405180910390fd5b6105e96040518060400160405280601981526020017f43616e6f6e6963616c5472616e73616374696f6e436861696e00000000000000815250610277565b73ffffffffffffffffffffffffffffffffffffffff16637aa63a866040518163ffffffff1660e01b815260040160206040518083038186803b15801561062e57600080fd5b505afa158015610642573d6000803e3d6000fd5b505050506040513d601f19601f820116820180604052508101906106669190611c0d565b82516106706103db565b61067a919061243e565b11156106bb576040517f08c379a00000000000000000000000000000000000000000000000000000000081526004016106b2906120e6565b60405180910390fd5b6106e68242336040516020016106d2929190612301565b604051602081830303815290604052610c87565b5050565b60008082608001518060200190518101906107059190611c3a565b509050600081141561074c576040517f08c379a000000000000000000000000000000000000000000000000000000000815260040161074390612206565b60405180910390fd5b426001548261075b919061243e565b11915050919050565b6107a26040518060400160405280601181526020017f4f564d5f46726175645665726966696572000000000000000000000000000000815250610277565b73ffffffffffffffffffffffffffffffffffffffff163373ffffffffffffffffffffffffffffffffffffffff161461080f576040517f08c379a0000000000000000000000000000000000000000000000000000000008152600401610806906121e6565b60405180910390fd5b61081881610965565b610857576040517f08c379a000000000000000000000000000000000000000000000000000000000815260040161084e906121a6565b60405180910390fd5b610860816106ea565b61089f576040517f08c379a0000000000000000000000000000000000000000000000000000000008152600401610896906121c6565b60405180910390fd5b6108a881610e9f565b50565b60015481565b60006108d4604051806060016040528060218152602001612d8d60219139610277565b905090565b60006108e36108b1565b73ffffffffffffffffffffffffffffffffffffffff16631f7b6d326040518163ffffffff1660e01b815260040160206040518083038186803b15801561092857600080fd5b505afa15801561093c573d6000803e3d6000fd5b505050506040513d601f19601f820116820180604052508101906109609190611c0d565b905090565b600061096f6108b1565b73ffffffffffffffffffffffffffffffffffffffff16639507d39a83600001516040518263ffffffff1660e01b81526004016109ab91906122e6565b60206040518083038186803b1580156109c357600080fd5b505afa1580156109d7573d6000803e3d6000fd5b505050506040513d601f19601f820116820180604052508101906109fb9190611ac3565b610a048361107a565b149050919050565b6000808211610a50576040517f08c379a0000000000000000000000000000000000000000000000000000000008152600401610a4790612186565b60405180910390fd5b818410610a92576040517f08c379a0000000000000000000000000000000000000000000000000000000008152600401610a8990612126565b60405180910390fd5b610a9b826110c0565b835114610add576040517f08c379a0000000000000000000000000000000000000000000000000000000008152600401610ad490612246565b60405180910390fd5b600085905060005b8451811015610ba35760018087161415610b4357848181518110610b0c57610b0b612780565b5b602002602001015182604051602001610b26929190611f9c565b604051602081830303815290604052805190602001209150610b89565b81858281518110610b5757610b56612780565b5b6020026020010151604051602001610b70929190611f9c565b6040516020818303038152906040528051906020012091505b600186901c95508080610b9b9061269e565b915050610ae5565b5080871491505095945050505050565b6000806000610bc06108b1565b73ffffffffffffffffffffffffffffffffffffffff1663ccf8f9696040518163ffffffff1660e01b815260040160206040518083038186803b158015610c0557600080fd5b505afa158015610c19573d6000803e3d6000fd5b505050506040513d601f19601f82011682018060405250810190610c3d9190611a96565b90506000808260281c925064ffffffffff831691507fffffffffffffffffffffffffffffffffffffffffffffffffffffff0000000000831660281c90508181945094505050509091565b6000610cc76040518060400160405280600c81526020017f4f564d5f50726f706f7365720000000000000000000000000000000000000000815250610277565b9050600080610cd4610bb3565b915091508273ffffffffffffffffffffffffffffffffffffffff163373ffffffffffffffffffffffffffffffffffffffff161415610d1457429050610d6b565b426002548264ffffffffff16610d2a919061243e565b10610d6a576040517f08c379a0000000000000000000000000000000000000000000000000000000008152600401610d61906122a6565b60405180910390fd5b5b60006040518060a00160405280610d806108d9565b8152602001610d8e88611190565b8152602001875181526020018464ffffffffff16815260200186815250905080600001517f16be4c5129a4e03cf3350262e181dc02ddfb4a6008d925368c0899fcd97ca9c58260200151836040015184606001518560800151604051610df79493929190612042565b60405180910390a2610e076108b1565b73ffffffffffffffffffffffffffffffffffffffff16632015276c610e2b8361107a565b610e4884604001518560600151610e42919061243e565b86611688565b6040518363ffffffff1660e01b8152600401610e65929190612019565b600060405180830381600087803b158015610e7f57600080fd5b505af1158015610e93573d6000803e3d6000fd5b50505050505050505050565b610ea76108b1565b73ffffffffffffffffffffffffffffffffffffffff16631f7b6d326040518163ffffffff1660e01b815260040160206040518083038186803b158015610eec57600080fd5b505afa158015610f00573d6000803e3d6000fd5b505050506040513d601f19601f82011682018060405250810190610f249190611c0d565b816000015110610f69576040517f08c379a0000000000000000000000000000000000000000000000000000000008152600401610f60906122c6565b60405180910390fd5b610f7281610965565b610fb1576040517f08c379a0000000000000000000000000000000000000000000000000000000008152600401610fa8906121a6565b60405180910390fd5b610fb96108b1565b73ffffffffffffffffffffffffffffffffffffffff1663167fd6818260000151610fe884606001516000611688565b6040518363ffffffff1660e01b815260040161100592919061232a565b600060405180830381600087803b15801561101f57600080fd5b505af1158015611033573d6000803e3d6000fd5b5050505080600001517f8747b69ce8fdb31c3b9b0a67bd8049ad8c1a69ea417b69b12174068abd9cbd64826020015160405161106f9190611ffe565b60405180910390a250565b600081602001518260400151836060015184608001516040516020016110a39493929190612042565b604051602081830303815290604052805190602001209050919050565b6000808211611104576040517f08c379a00000000000000000000000000000000000000000000000000000000081526004016110fb90612146565b60405180910390fd5b6001821415611116576000905061118b565b6000829050600080608090505b60018110611169576000816001836001901b61113f919061251f565b901b84161461115d578082611154919061243e565b91508083901c92505b600181901c9050611123565b5083816001901b1461118557600181611182919061243e565b90505b80925050505b919050565b6000808251116111d5576040517f08c379a00000000000000000000000000000000000000000000000000000000081526004016111cc90612286565b60405180910390fd5b60018251141561120257816000815181106111f3576111f2612780565b5b60200260200101519050611683565b60006040518061020001604052807f290decd9548b62a8d60345a988386fc84ba6bc95484008f6362f93160ef3e56381526020017f633dc4d7da7256660a892f8f1604a44b5432649cc8ec5cb3ced4c4e6ac94dd1d81526020017f890740a8eb06ce9be422cb8da5cdafc2b58c0a5e24036c578de2a433c828ff7d81526020017f3b8ec09e026fdc305365dfc94e189a81b38c7597b3d941c279f042e8206e0bd881526020017fecd50eee38e386bd62be9bedb990706951b65fe053bd9d8a521af753d139e2da81526020017fdefff6d330bb5403f63b14f33b578274160de3a50df4efecf0e0db73bcdd3da581526020017f617bdd11f7c0a11f49db22f629387a12da7596f9d1704d7465177c63d88ec7d781526020017f292c23a9aa1d8bea7e2435e555a4a60e379a5a35f3f452bae60121073fb6eead81526020017fe1cea92ed99acdcb045a6726b2f87107e8a61620a232cf4d7d5b5766b3952e1081526020017f7ad66c0a68c72cb89e4fb4303841966e4062a76ab97451e3b9fb526a5ceb7f8281526020017fe026cc5a4aed3c22a58cbd3d2ac754c9352c5436f638042dca99034e8363651681526020017f3d04cffd8b46a874edf5cfae63077de85f849a660426697b06a829c70dd1409c81526020017fad676aa337a485e4728a0b240d92b3ef7b3c372d06d189322bfd5f61f1e7203e81526020017fa2fca4a49658f9fab7aa63289c91b7c7b6c832a6d0e69334ff5b0a3483d09dab81526020017f4ebfd9cd7bca2505f7bef59cc1c12ecc708fff26ae4af19abe852afe9e20c86281526020017f2def10d13dd169f550f578bda343d9717a138562e0093b380a1120789d53cf1081525090506000604067ffffffffffffffff81111561148d5761148c6127af565b5b6040519080825280601f01601f1916602001820160405280156114bf5781602001600182028036833780820191505090505b509050600080600086519050600080805b600184111561165c576002846114e69190612494565b915060016002856114f791906126f1565b14905060005b828110156115a9578a81600261151391906124c5565b8151811061152457611523612780565b5b602002602001015196508a600182600261153e91906124c5565b611548919061243e565b8151811061155957611558612780565b5b6020026020010151955086602089015285604089015287805190602001208b828151811061158a57611589612780565b5b60200260200101818152505080806115a19061269e565b9150506114fd565b50801561162a57896001856115be919061251f565b815181106115cf576115ce612780565b5b602002602001015195508783601081106115ec576115eb612780565b5b602002015160001b945085602088015284604088015286805190602001208a838151811061161d5761161c612780565b5b6020026020010181815250505b80611636576000611639565b60015b60ff1682611647919061243e565b935082806116549061269e565b9350506114d0565b896000815181106116705761166f612780565b5b6020026020010151985050505050505050505b919050565b6000808390508260281b811790508060281b90508091505092915050565b60006116b96116b484612378565b612353565b905080838252602082019050828560208602820111156116dc576116db6127ed565b5b60005b8581101561170c57816116f2888261181c565b8452602084019350602083019250506001810190506116df565b5050509392505050565b6000611729611724846123a4565b612353565b905082815260208101848484011115611745576117446127f2565b5b61175084828561262b565b509392505050565b600061176b611766846123d5565b612353565b905082815260208101848484011115611787576117866127f2565b5b61179284828561262b565b509392505050565b6000815190506117a981612d02565b92915050565b6000815190506117be81612d19565b92915050565b600082601f8301126117d9576117d86127de565b5b81356117e98482602086016116a6565b91505092915050565b60008151905061180181612d30565b92915050565b60008151905061181681612d47565b92915050565b60008135905061182b81612d5e565b92915050565b60008151905061184081612d5e565b92915050565b600082601f83011261185b5761185a6127de565b5b813561186b848260208601611716565b91505092915050565b600082601f830112611889576118886127de565b5b8135611899848260208601611758565b91505092915050565b600060a082840312156118b8576118b76127e3565b5b6118c260a0612353565b905060006118d2848285016119b6565b60008301525060206118e68482850161181c565b60208301525060406118fa848285016119b6565b604083015250606061190e848285016119b6565b606083015250608082013567ffffffffffffffff811115611932576119316127e8565b5b61193e84828501611846565b60808301525092915050565b6000604082840312156119605761195f6127e3565b5b61196a6040612353565b9050600061197a848285016119b6565b600083015250602082013567ffffffffffffffff81111561199e5761199d6127e8565b5b6119aa848285016117c4565b60208301525092915050565b6000813590506119c581612d75565b92915050565b6000815190506119da81612d75565b92915050565b6000602082840312156119f6576119f56127fc565b5b6000611a048482850161179a565b91505092915050565b60008060408385031215611a2457611a236127fc565b5b600083013567ffffffffffffffff811115611a4257611a416127f7565b5b611a4e858286016117c4565b9250506020611a5f858286016119b6565b9150509250929050565b600060208284031215611a7f57611a7e6127fc565b5b6000611a8d848285016117f2565b91505092915050565b600060208284031215611aac57611aab6127fc565b5b6000611aba84828501611807565b91505092915050565b600060208284031215611ad957611ad86127fc565b5b6000611ae784828501611831565b91505092915050565b600080600060608486031215611b0957611b086127fc565b5b6000611b178682870161181c565b935050602084013567ffffffffffffffff811115611b3857611b376127f7565b5b611b44868287016118a2565b925050604084013567ffffffffffffffff811115611b6557611b646127f7565b5b611b718682870161194a565b9150509250925092565b600060208284031215611b9157611b906127fc565b5b600082013567ffffffffffffffff811115611baf57611bae6127f7565b5b611bbb84828501611874565b91505092915050565b600060208284031215611bda57611bd96127fc565b5b600082013567ffffffffffffffff811115611bf857611bf76127f7565b5b611c04848285016118a2565b91505092915050565b600060208284031215611c2357611c226127fc565b5b6000611c31848285016119cb565b91505092915050565b60008060408385031215611c5157611c506127fc565b5b6000611c5f858286016119cb565b9250506020611c70858286016117af565b9150509250929050565b611c8381612553565b82525050565b611c9281612577565b82525050565b611ca181612583565b82525050565b611cb0816125af565b82525050565b611cc7611cc2826125af565b6126e7565b82525050565b6000611cd882612406565b611ce2818561241c565b9350611cf281856020860161263a565b611cfb81612801565b840191505092915050565b611d0f816125e3565b82525050565b611d1e816125f5565b82525050565b6000611d2f82612411565b611d39818561242d565b9350611d4981856020860161263a565b611d5281612801565b840191505092915050565b6000611d6a60498361242d565b9150611d7582612812565b606082019050919050565b6000611d8d60188361242d565b9150611d9882612887565b602082019050919050565b6000611db060248361242d565b9150611dbb826128b0565b604082019050919050565b6000611dd360308361242d565b9150611dde826128ff565b604082019050919050565b6000611df6603d8361242d565b9150611e018261294e565b604082019050919050565b6000611e1960378361242d565b9150611e248261299d565b604082019050919050565b6000611e3c60158361242d565b9150611e47826129ec565b602082019050919050565b6000611e5f60408361242d565b9150611e6a82612a15565b604082019050919050565b6000611e82603b8361242d565b9150611e8d82612a64565b604082019050919050565b6000611ea560258361242d565b9150611eb082612ab3565b604082019050919050565b6000611ec860238361242d565b9150611ed382612b02565b604082019050919050565b6000611eeb604d8361242d565b9150611ef682612b51565b606082019050919050565b6000611f0e602f8361242d565b9150611f1982612bc6565b604082019050919050565b6000611f3160348361242d565b9150611f3c82612c15565b604082019050919050565b6000611f5460438361242d565b9150611f5f82612c64565b606082019050919050565b6000611f7760148361242d565b9150611f8282612cd9565b602082019050919050565b611f96816125d9565b82525050565b6000611fa88285611cb6565b602082019150611fb88284611cb6565b6020820191508190509392505050565b6000602082019050611fdd6000830184611c7a565b92915050565b6000602082019050611ff86000830184611c89565b92915050565b60006020820190506120136000830184611ca7565b92915050565b600060408201905061202e6000830185611ca7565b61203b6020830184611c98565b9392505050565b60006080820190506120576000830187611ca7565b6120646020830186611f8d565b6120716040830185611f8d565b81810360608301526120838184611ccd565b905095945050505050565b60006020820190506120a36000830184611d06565b92915050565b60006020820190506120be6000830184611d15565b92915050565b600060208201905081810360008301526120de8184611d24565b905092915050565b600060208201905081810360008301526120ff81611d5d565b9050919050565b6000602082019050818103600083015261211f81611d80565b9050919050565b6000602082019050818103600083015261213f81611da3565b9050919050565b6000602082019050818103600083015261215f81611dc6565b9050919050565b6000602082019050818103600083015261217f81611de9565b9050919050565b6000602082019050818103600083015261219f81611e0c565b9050919050565b600060208201905081810360008301526121bf81611e2f565b9050919050565b600060208201905081810360008301526121df81611e52565b9050919050565b600060208201905081810360008301526121ff81611e75565b9050919050565b6000602082019050818103600083015261221f81611e98565b9050919050565b6000602082019050818103600083015261223f81611ebb565b9050919050565b6000602082019050818103600083015261225f81611ede565b9050919050565b6000602082019050818103600083015261227f81611f01565b9050919050565b6000602082019050818103600083015261229f81611f24565b9050919050565b600060208201905081810360008301526122bf81611f47565b9050919050565b600060208201905081810360008301526122df81611f6a565b9050919050565b60006020820190506122fb6000830184611f8d565b92915050565b60006040820190506123166000830185611f8d565b6123236020830184611c7a565b9392505050565b600060408201905061233f6000830185611f8d565b61234c6020830184611c98565b9392505050565b600061235d61236e565b9050612369828261266d565b919050565b6000604051905090565b600067ffffffffffffffff821115612393576123926127af565b5b602082029050602081019050919050565b600067ffffffffffffffff8211156123bf576123be6127af565b5b6123c882612801565b9050602081019050919050565b600067ffffffffffffffff8211156123f0576123ef6127af565b5b6123f982612801565b9050602081019050919050565b600081519050919050565b600081519050919050565b600082825260208201905092915050565b600082825260208201905092915050565b6000612449826125d9565b9150612454836125d9565b9250827fffffffffffffffffffffffffffffffffffffffffffffffffffffffffffffffff0382111561248957612488612722565b5b828201905092915050565b600061249f826125d9565b91506124aa836125d9565b9250826124ba576124b9612751565b5b828204905092915050565b60006124d0826125d9565b91506124db836125d9565b9250817fffffffffffffffffffffffffffffffffffffffffffffffffffffffffffffffff048311821515161561251457612513612722565b5b828202905092915050565b600061252a826125d9565b9150612535836125d9565b92508282101561254857612547612722565b5b828203905092915050565b600061255e826125b9565b9050919050565b6000612570826125b9565b9050919050565b60008115159050919050565b60007fffffffffffffffffffffffffffffffffffffffffffffffffffffff000000000082169050919050565b6000819050919050565b600073ffffffffffffffffffffffffffffffffffffffff82169050919050565b6000819050919050565b60006125ee82612607565b9050919050565b600061260082612607565b9050919050565b600061261282612619565b9050919050565b6000612624826125b9565b9050919050565b82818337600083830152505050565b60005b8381101561265857808201518184015260208101905061263d565b83811115612667576000848401525b50505050565b61267682612801565b810181811067ffffffffffffffff82111715612695576126946127af565b5b80604052505050565b60006126a9826125d9565b91507fffffffffffffffffffffffffffffffffffffffffffffffffffffffffffffffff8214156126dc576126db612722565b5b600182019050919050565b6000819050919050565b60006126fc826125d9565b9150612707836125d9565b92508261271757612716612751565b5b828206905092915050565b7f4e487b7100000000000000000000000000000000000000000000000000000000600052601160045260246000fd5b7f4e487b7100000000000000000000000000000000000000000000000000000000600052601260045260246000fd5b7f4e487b7100000000000000000000000000000000000000000000000000000000600052603260045260246000fd5b7f4e487b7100000000000000000000000000000000000000000000000000000000600052604160045260246000fd5b600080fd5b600080fd5b600080fd5b600080fd5b600080fd5b600080fd5b600080fd5b6000601f19601f8301169050919050565b7f4e756d626572206f6620737461746520726f6f74732063616e6e6f742065786360008201527f65656420746865206e756d626572206f662063616e6f6e6963616c207472616e60208201527f73616374696f6e732e0000000000000000000000000000000000000000000000604082015250565b7f496e76616c696420696e636c7573696f6e2070726f6f662e0000000000000000600082015250565b7f4c69625f4d65726b6c65547265653a20496e646578206f7574206f6620626f7560008201527f6e64732e00000000000000000000000000000000000000000000000000000000602082015250565b7f4c69625f4d65726b6c65547265653a2043616e6e6f7420636f6d70757465206360008201527f65696c286c6f675f3229206f6620302e00000000000000000000000000000000602082015250565b7f41637475616c20626174636820737461727420696e64657820646f6573206e6f60008201527f74206d6174636820657870656374656420737461727420696e6465782e000000602082015250565b7f4c69625f4d65726b6c65547265653a20546f74616c206c6561766573206d757360008201527f742062652067726561746572207468616e207a65726f2e000000000000000000602082015250565b7f496e76616c6964206261746368206865616465722e0000000000000000000000600082015250565b7f537461746520626174636865732063616e206f6e6c792062652064656c65746560008201527f642077697468696e207468652066726175642070726f6f662077696e646f772e602082015250565b7f537461746520626174636865732063616e206f6e6c792062652064656c65746560008201527f6420627920746865204f564d5f467261756456657269666965722e0000000000602082015250565b7f4261746368206865616465722074696d657374616d702063616e6e6f7420626560008201527f207a65726f000000000000000000000000000000000000000000000000000000602082015250565b7f43616e6e6f74207375626d697420616e20656d7074792073746174652062617460008201527f63682e0000000000000000000000000000000000000000000000000000000000602082015250565b7f4c69625f4d65726b6c65547265653a20546f74616c207369626c696e6773206460008201527f6f6573206e6f7420636f72726563746c7920636f72726573706f6e6420746f2060208201527f746f74616c206c65617665732e00000000000000000000000000000000000000604082015250565b7f50726f706f73657220646f6573206e6f74206861766520656e6f75676820636f60008201527f6c6c61746572616c20706f737465640000000000000000000000000000000000602082015250565b7f4c69625f4d65726b6c65547265653a204d7573742070726f766964652061742060008201527f6c65617374206f6e65206c65616620686173682e000000000000000000000000602082015250565b7f43616e6e6f74207075626c69736820737461746520726f6f747320776974686960008201527f6e207468652073657175656e636572207075626c69636174696f6e2077696e6460208201527f6f772e0000000000000000000000000000000000000000000000000000000000604082015250565b7f496e76616c696420626174636820696e6465782e000000000000000000000000600082015250565b612d0b81612553565b8114612d1657600080fd5b50565b612d2281612565565b8114612d2d57600080fd5b50565b612d3981612577565b8114612d4457600080fd5b50565b612d5081612583565b8114612d5b57600080fd5b50565b612d67816125af565b8114612d7257600080fd5b50565b612d7e816125d9565b8114612d8957600080fd5b5056fe436861696e53746f72616765436f6e7461696e65722d5343432d62617463686573a26469706673582212208bbc775be85213ebd54c716b79faec894ef362f9b2f4ebe383e791bf2c6f86b664736f6c63430008070033",
  "devdoc": {
    "details": "The State Commitment Chain (SCC) contract contains a list of proposed state roots which Proposers assert to be a result of each transaction in the Canonical Transaction Chain (CTC). Elements here have a 1:1 correspondence with transactions in the CTC, and should be the unique state root calculated off-chain by applying the canonical transactions one by one. Runtime target: EVM",
    "kind": "dev",
    "methods": {
      "appendStateBatch(bytes32[],uint256)": {
        "params": {
          "_batch": "Batch of state roots.",
          "_shouldStartAtElement": "Index of the element at which this batch should start."
        }
      },
      "batches()": {
        "returns": {
          "_0": "Reference to the batch storage container."
        }
      },
      "constructor": {
        "params": {
          "_libAddressManager": "Address of the Address Manager."
        }
      },
      "deleteStateBatch((uint256,bytes32,uint256,uint256,bytes))": {
        "params": {
          "_batchHeader": "Header of the batch to start deleting from."
        }
      },
      "getLastSequencerTimestamp()": {
        "returns": {
          "_lastSequencerTimestamp": "Last sequencer batch timestamp."
        }
      },
      "getTotalBatches()": {
        "returns": {
          "_totalBatches": "Total submitted batches."
        }
      },
      "getTotalElements()": {
        "returns": {
          "_totalElements": "Total submitted elements."
        }
      },
      "insideFraudProofWindow((uint256,bytes32,uint256,uint256,bytes))": {
        "params": {
          "_batchHeader": "Header of the batch to check."
        },
        "returns": {
          "_inside": "Whether or not the batch is inside the fraud proof window."
        }
      },
      "resolve(string)": {
        "params": {
          "_name": "Name to resolve an address for."
        },
        "returns": {
          "_0": "Address associated with the given name."
        }
      },
      "verifyStateCommitment(bytes32,(uint256,bytes32,uint256,uint256,bytes),(uint256,bytes32[]))": {
        "params": {
          "_batchHeader": "Header of the batch in which the element was included.",
          "_element": "Hash of the element to verify a proof for.",
          "_proof": "Merkle inclusion proof for the element."
        }
      }
    },
    "title": "StateCommitmentChain",
    "version": 1
  },
  "userdoc": {
    "kind": "user",
    "methods": {
      "appendStateBatch(bytes32[],uint256)": {
        "notice": "Appends a batch of state roots to the chain."
      },
      "batches()": {
        "notice": "Accesses the batch storage container."
      },
      "deleteStateBatch((uint256,bytes32,uint256,uint256,bytes))": {
        "notice": "Deletes all state roots after (and including) a given batch."
      },
      "getLastSequencerTimestamp()": {
        "notice": "Retrieves the timestamp of the last batch submitted by the sequencer."
      },
      "getTotalBatches()": {
        "notice": "Retrieves the total number of batches submitted."
      },
      "getTotalElements()": {
        "notice": "Retrieves the total number of elements submitted."
      },
      "insideFraudProofWindow((uint256,bytes32,uint256,uint256,bytes))": {
        "notice": "Checks whether a given batch is still inside its fraud proof window."
      },
      "resolve(string)": {
        "notice": "Resolves the address associated with a given name."
      },
      "verifyStateCommitment(bytes32,(uint256,bytes32,uint256,uint256,bytes),(uint256,bytes32[]))": {
        "notice": "Verifies a batch inclusion proof."
      }
    },
    "version": 1
  },
  "storageLayout": {
    "storage": [
      {
        "astId": 7832,
        "contract": "contracts/L1/rollup/StateCommitmentChain.sol:StateCommitmentChain",
        "label": "libAddressManager",
        "offset": 0,
        "slot": "0",
        "type": "t_contract(Lib_AddressManager)7824"
      },
      {
        "astId": 5124,
        "contract": "contracts/L1/rollup/StateCommitmentChain.sol:StateCommitmentChain",
        "label": "FRAUD_PROOF_WINDOW",
        "offset": 0,
        "slot": "1",
        "type": "t_uint256"
      },
      {
        "astId": 5126,
        "contract": "contracts/L1/rollup/StateCommitmentChain.sol:StateCommitmentChain",
        "label": "SEQUENCER_PUBLISH_WINDOW",
        "offset": 0,
        "slot": "2",
        "type": "t_uint256"
      }
    ],
    "types": {
      "t_contract(Lib_AddressManager)7824": {
        "encoding": "inplace",
        "label": "contract Lib_AddressManager",
        "numberOfBytes": "20"
      },
      "t_uint256": {
        "encoding": "inplace",
        "label": "uint256",
        "numberOfBytes": "32"
      }
    }
  }
}